:100000000C9462000C948A000C948A000C948A0070
:100010000C948A000C948A000C948A000C948A0038
:100020000C948A000C948A000C948A000C948A0028
:100030000C948A000C948A000C948A000C948A0018
:100040000C94540D0C948A000C945A0E0C94340E9B
:100050000C948A000C948A000C948A000C948A00F8
:100060000C9491090C948A000000000024002700E1
:100070002A0000000000250028002B0000000000DE
:1000800023002600290004040404040404040202DA
:100090000202020203030303030301020408102007
:1000A0004080010204081020010204081020000012
:1000B0000008000201000003040700000000000027
:1000C00000008C0E11241FBECFEFD8E0DEBFCDBFE5
:1000D00023E0ACECB1E001C01D92A235B207E1F71C
:1000E00011E0A0E0B1E0EAEEFBE202C005900D9263
:1000F000AC3CB107D9F710E0C2E6D0E004C02197CC
:10010000FE010E94D213C136D107C9F70E94C50E65
:100110000C94F3150C94000080E090E0892B29F0FA
:100120000E94750B81110C9400000895CF93DF930A
:10013000EC018A819B81DC01ED91FC910190F081C1
:10014000E02D0995AC01EC81FD818481288530E0AA
:10015000882351F04217530784F4298530E081E069
:10016000241735076CF009C02417350744F029859A
:1001700030E081E0421753071CF080E001C081E0CD
:10018000DF91CF910895FC0160874187089508951C
:100190008F929F92AF92BF92CF92DF92EF92FF9297
:1001A0000F931F93CF93DF93CDB7DEB7AC970FB606
:1001B000F894DEBF0FBECDBF6C014A015901CE01DC
:1001C00001967C0188E2D7011D928A95E9F7D60154
:1001D000ED91FC910084F185E02DA701C601099500
:1001E000009709F04DC01CA61BA61AA619A6D60199
:1001F000ED91FC910284F385E02D9E01275D3F4F38
:10020000AE01455D5F4FB701C60109950097C1F585
:100210000115110539F088E2F701D80101900D921E
:100220008A95E1F78114910499F06BA57CA5072EBE
:10023000000C880B990B0E94FB1020E030E040E29C
:1002400051E40E94D612F401608371838283938308
:10025000A114B104B9F069A57AA5072E000C880B8A
:10026000990B0E94FB1020E030E040E251E40E9434
:10027000D612D5016D937D938D939C93139702C0F5
:10028000282F02C020E090E0822FAC960FB6F894A1
:10029000DEBF0FBECDBFDF91CF911F910F91FF90B9
:1002A000EF90DF90CF90BF90AF909F908F90089588
:1002B0008F929F92AF92BF92CF92DF92EF92FF9276
:1002C0000F931F93CF93DF93EC018B015A016901C8
:1002D000E881F9810680F781E02D0995982EE88163
:1002E000F981B801685F7F4F0680F781E02DCE016C
:1002F0000995F82EE881F981B801605F7F4F06808B
:10030000F781E02DCE010995882EE881F981B801A9
:10031000685E7F4F0680F781E02DCE010995E82EBB
:10032000E881F981B801605E7F4F0680F781E02D9A
:10033000CE0109959F2D990D980D9E0D891310C022
:100340002E2D30E03829F501318320834F2D50E0E8
:10035000CA019929F6019183808380E090E002C070
:1003600089E690E0DF91CF911F910F91FF90EF9080
:10037000DF90CF90BF90AF909F908F90089540E016
:1003800050E080E0A7E0B0E0FB012191BF01FD015A
:10039000E41BF50B01C0220FEA95EAF7820F4F5FCD
:1003A0005F4F4830510581F70895CF92DF92EF9269
:1003B000FF920F931F93CF93DF93CDB7DEB72897AC
:1003C0000FB6F894DEBF0FBECDBF6A0179011D8262
:1003D0001E821F82188619821A821B821C82DC01EF
:1003E000ED91FC910280F381E02D9E012F5F3F4F44
:1003F000AE014B5F5F4F0995892BB1F4C114D10455
:1004000041F06D817E818F8198850E944813F601AD
:100410006083E114F10441F069817A818B819C81D0
:100420000E944813D7016C9380E090E028960FB6A5
:10043000F894DEBF0FBECDBFDF91CF911F910F911A
:10044000FF90EF90DF90CF90089580E090E00895C6
:10045000CF93DF93CDB7DEB7A4970FB6F894DEBF86
:100460000FBECDBFDC0113968D919C911497DC01DA
:10047000ED91FC910680F781E02DBE016F5F7F4F0B
:1004800009956D897E898F89988D0E944813CB01CB
:10049000A4960FB6F894DEBF0FBECDBFDF91CF910B
:1004A00008950F931F93CF93DF9300D000D0CDB763
:1004B000DEB7FC0127816381059670E000E010E063
:1004C000222331F09E012F5F3F4F40E050E005C0F6
:1004D00020E030E0AE014F5F5F4F0E94C80020E097
:1004E00030E040E251E469817A818B819C810E94F5
:1004F0005A110E944813CB010F900F900F900F904C
:10050000DF91CF911F910F910895FC0167830895AA
:1005100008950895E0917B0280917A02E81730F403
:10052000F0E0E95AFD4F808190E008958FEF9FEF52
:10053000089590917B0280917A02981750F4E92FE8
:10054000F0E0E95AFD4F208130E09F5F90937B02FD
:1005500002C02FEF3FEFC901089580917A0290E029
:1005600020917B02821B9109089520917C02909139
:100570007E02213208F04AC0809179028111FCCFBD
:1005800032E03093790231E0309378023FEF3093DC
:1005900036021092350220933402A7E3B2E044E120
:1005A00052E0FA013E2F341B321718F43D9131937B
:1005B000F9CF1092130220911302990F922B90936E
:1005C000130290917702913061F41092770290912A
:1005D00013029093BB009091BC0093FDF8CF95EC73
:1005E00001C095EE9093BC00909179029230E1F3B6
:1005F000909136029F3F79F080913602803241F02F
:1006000080913602803331F084E005C081E003C080
:1006100082E001C083E010927D0210927C02109271
:100620007F0208950F931F93CF93DF931F92CDB74F
:10063000DEB78C01DC0115968C91159791E09093B3
:100640007F0280937E0210927D0210927C021396AC
:100650008D919C911497DC01ED91FC910190F081BA
:10066000E02D49830995F80183819481DC01ED91A6
:10067000FC910190F081E02D4981642F0995F801EA
:10068000838194810F90DF91CF911F910F910C94F2
:10069000B50240E060E80C941203089580E090E019
:1006A000089585ED8093BC008091BC0084FDFCCF53
:1006B0001092790208954091EE01262F30E0240F28
:1006C000311D21323105DCF4209179022430C9F446
:1006D000FC0180E090E0861758F43091EE01219102
:1006E000DC01A453BE4FA30FB11D2C930196F3CF91
:1006F0008091EE01680F6093EE0180E0089581E043
:10070000089582E00895CF92DF92EF92FF920F93C7
:100710001F93CF93DF937C01262F972F8A0180911F
:100720007F02882391F0C62FD72F6E01C40ED51EED
:10073000CC15DD0571F06991D701ED91FC91019027
:10074000F081E02DC7010995F3CF642F822F0E941D
:100750005B03C801DF91CF911F910F91FF90EF9044
:10076000DF90CF900895CF93DF931F92CDB7DEB780
:10077000698320917F022223D1F020917C022032D4
:1007800040F021E030E0FC013383228380E090E000
:1007900015C080917D02E82FF0E0E95CFD4F998162
:1007A00090838F5F80937D0280937C0205C061E01F
:1007B000CE0101960E945B0381E090E00F90DF91F3
:1007C000CF9108950C946D140C946D140C946D14C9
:1007D0000C946D140C946D140C946D140C946D1495
:1007E000CF93DF93EC0161E08B810E94DE0C61E02E
:1007F0008B81DF91CF910C94AE0C0F931F93CF930D
:10080000DF938C0161E0FC0184810E94AE0C68ECF6
:1008100070E080E090E00E941A0DF80193819E3014
:1008200008F09E509770906490937C0080917A00BD
:10083000806480937A0080917A0086FDFCCFC0911D
:10084000780080917900D0E0D82B62E370E080E0FE
:1008500090E00E941A0D60E0F80184810E94AE0CC5
:10086000CE01DF91CF911F910F910895AF92BF926A
:10087000DF92EF92FF920F931F93CF93DF93D62EC9
:10088000CA016AE070E00E9488137B01C0E0D0E0FA
:10089000022F10E083E2A82EB12CEC16FD065CF0CE
:1008A0008D2D0E94850C8017910741F4F501319739
:1008B000F1F72196F2CF8FEF9FEF02C080E090E03A
:1008C000DF91CF911F910F91FF90EF90DF90BF903C
:1008D000AF9008958F929F92AF92BF92CF92DF9286
:1008E000EF92FF920F931F93CF93DF938C01EB0155
:1008F0007A0188E2DA011D928A95E9F761E08C2F8E
:100900000E94DE0C60E08C2F0E94AE0C8BE99FE011
:100910000197F1F761E08C2F0E94AE0C60E08C2F04
:100920000E94DE0C83E790E00197F1F7D801ED918A
:10093000FC910480F581E02D20E040E550E0BE010F
:10094000C8010995892BB9F5D801ED91FC91048076
:10095000F581E02D21E040E550E0BE01C801099598
:10096000892B61F55701B8E2AB0EB11C83E2882EEA
:10097000912CD801ED91FC910480F581E02D20E0CF
:1009800042E350E0BE01C8010995892BD1F4C12C86
:10099000D12C8C2F0E94850C0197B1F4C4010197D2
:1009A000F1F7BFEFCB1ADB0AE8E0CE16D10489F7E6
:1009B00087E690E025C084E690E022C085E690E0DE
:1009C0001FC086E690E01CC081E0B4E0CB16D104E5
:1009D0000CF480E0F70181937F01EA15FB0549F6ED
:1009E000D801ED91FC910480F581E02D20E042E3F7
:1009F00050E0BE01C8010995009711F088E690E02B
:100A0000DF91CF911F910F91FF90EF90DF90CF90EA
:100A1000BF90AF909F908F9008950F931F93CF93A7
:100A2000DF938C01EB0188E2FB0111928A95E9F7D3
:100A30004BE050E068E971E0CE010E94E4151B86AE
:100A400081E090E0A0E0B0E08C879D87AE87BF8713
:100A5000F80184859585A685B785888B998BAA8BA7
:100A6000BB8B85E090E0A0E0B0E08C8B9D8BAE8BE3
:100A7000BF8B1CA21DA21EA21FA280E090EDA4E8C5
:100A8000B6E4888F998FAA8FBB8F80E090E0A0E8B2
:100A9000BFE38C8F9D8FAE8FBF8F88A399A3AAA32E
:100AA000BBA3DF91CF911F910F910895809179029F
:100AB0008111FCCF842F413208F080E291E09093C5
:100AC0007902909378022FEF20933602109235022C
:100AD000280F209334029093130290911302660F13
:100AE000692B6093130290917702913061F4109218
:100AF0007702909113029093BB009091BC0093FDFC
:100B0000F8CF95EC01C095EE9093BC0090917902DE
:100B10009130E1F390913502981710F480913502ED
:100B2000A4E1B2E027E532E0F9019E2F921B98176D
:100B300018F49D919193F9CF10927B0280937A02E1
:100B400008950F931F93CF93DF93EC018D8191E074
:100B500090937F0280937E0210927D0210927C021D
:100B60008B819C81DC01ED91FC910190F081E02D65
:100B700009958B819C810E94B5026D81062E000C27
:100B8000770B42E050E08B819C810E9456058B815F
:100B90009C81DC01ED91FC910284F385E02D0995A7
:100BA0008C018B819C81DC01ED91FC910284F385A9
:100BB000E02D099520E030E0382FC901802B912BE2
:100BC000DF91CF911F910F910895EF92FF920F93B4
:100BD0001F93CF93DF93EC017B018A0143E060E830
:100BE0000E94120388859985009739F0019751F486
:100BF00068E770E080E090E009C06FE070E080E0BE
:100C000090E004C062EC71E080E090E00E941A0D78
:100C10006CEACE010E94A105F701918380836EEA00
:100C2000CE010E94A105F80191838083CE01DF915E
:100C3000CF911F910F91FF90EF900C94490308956D
:100C40000895CF93DF93EC0160E08B810E94DE0C6E
:100C500061E08B810E94DE0C60E08B810E94AE0C13
:100C60001C82DF91CF910895CF92DF92EF92FF9295
:100C70000F931F93CF93DF93CDB7DEB76B970FB66C
:100C8000F894DEBF0FBECDBF7C016B01DB01149673
:100C9000ED91FC91159782811F8A1E8A198E188EFC
:100CA0001B8E1A8E4AE08E010F5F1F4FB80190E035
:100CB0000E94CA10F80101900020E9F73197AF01B6
:100CC000401B510BB801CE0146960E94E20D67EB26
:100CD00071E0CE0140960E941F0E64EA71E0C801E7
:100CE0000E941F0E1B861A861D861C861F861E8666
:100CF000B801CE010A960E94030EBE01605F7F4FCD
:100D0000CE010A960E94B00DBE016A5E7F4F0E941E
:100D1000B00DF701118210821382128215821482A3
:100D2000BC01C7010E94030ECE010A960E941A0E52
:100D3000C8010E941A0ECE0140960E941A0ECE01E2
:100D400046960E941A0ED60112968D919C91139789
:100D5000DC01ED91FC910190F081E02D0995AC0151
:100D6000F60184819581DC0114963C912085332322
:100D700071F030E042175307E4F5218530E0241785
:100D80003507BCF50E94210660EA71E013C030E02F
:100D90002417350734F0F601218530E04217530758
:100DA00044F5DC01ED91FC910480F581E02D09957D
:100DB00063EA71E0CE010A960E941F0E1A82198220
:100DC0001C821B821E821D82B701C8010E94030E75
:100DD000BE01665F7F4FC8010E94B00DBC01C70114
:100DE0000E94030EC8010E941A0ECE010A960E94AC
:100DF0001A0EC7016B960FB6F894DEBF0FBECDBFBB
:100E0000DF91CF911F910F91FF90EF90DF90CF90E6
:100E10000895089508950895089508950F931F93D0
:100E2000CF93DF93EC01162F072F8E81811103C022
:100E3000CE010E942F0743E060E8CE010E9412031A
:100E40004A85412B61E8CE010E9412031887098769
:100E5000CE01DF91CF911F910F910C9449031F9305
:100E6000CF93DF93EC0184E892E09C838B83109214
:100E70007B0210927A0210927D0210927C021092F4
:100E8000790211E0109378021092770261E082E11A
:100E90000E94AE0C61E083E10E94AE0C8091B9002B
:100EA0008E7F8093B9008091B9008D7F8093B900C7
:100EB00088E48093B80085E48093BC008D81109312
:100EC0007F0280937E0210927D0210927C028B81C1
:100ED0009C81DC01ED91FC910190F081E02D6AE0B4
:100EE00009958B819C810E94B5026D81062E000CB4
:100EF000770B41E050E08B819C810E9456058B81ED
:100F00009C81DC01ED91FC910284F385E02D099533
:100F100080FD10C01E8368857985CE010E940E0772
:100F20006A857B85CE010E949F07CE010E944903FE
:100F300081E001C080E0DF91CF911F9108950F9370
:100F40001F93CF93DF93EC01162F072F8E81811112
:100F500003C0CE010E942F0743E060E8CE010E944B
:100F600012034885412B61E8CE010E9412031A87C3
:100F70000B87CE01DF91CF911F910F910C94490304
:100F80004F925F926F927F928F929F92AF92BF9299
:100F9000CF92DF92EF92FF920F931F93CF93DF9345
:100FA000CDB7DEB729970FB6F894DEBF0FBECDBF21
:100FB0008C017B0184E2FB0111928A95E9F784E2BE
:100FC00090E0A0E0B0E0FB0180839183A283B38333
:100FD000F80184859585A685B785FB018483958373
:100FE000A683B78385E090E0A0E0B0E0808791879A
:100FF000A287B3872FB7F8948091800290918102E5
:10100000A0918202B09183022FBF808B918BA28B23
:10101000B38BF8018681811103C0C8010E942F079C
:10102000F801878181110AC0AE014B5F5F4FBE019D
:10103000695F7F4FC8010E94E50559C020E0F801B3
:1010400080859185009799F0019741F478EC872E7F
:10105000912CE0EAAE2EECE8BE2E10C054EF852EA7
:101060009924939468E1A62E66EFB62E07C034E665
:10107000832E912C42EFA42E42E1B42EAE014F5F9D
:101080005F4FBE016D5F7F4FC80129870E94E50554
:101090008B819C812985211124C08815990540F4F4
:1010A000F80122853385232BE1F460E170E00BC069
:1010B000A816B906B0F4F801228533852031310530
:1010C00081F460E070E0C8010E949F07AE014F5FAD
:1010D0005F4FBE016D5F7F4FC8010E94E50521E0B3
:1010E000AECF98878F8389819A819E838D83CD80AF
:1010F000DE80AF81B885F80180859185009749F041
:101100008130910519F028EE3DEF05C028E830E95F
:1011100002C024E233E12A173B0708F4E0C02C1593
:101120003D0508F4C7C0009779F0019739F497EEB0
:10113000492E9FE0592E612C712C0CC0412C84E06B
:10114000582E612C712C06C0F7E14F2EF5E75F2E6B
:10115000612C712CF80182859385892B39F4E4E0A8
:10116000440C551C661C771CEA95D1F7A30192012B
:101170000E9418124B015C016AE0B694A794979400
:1011800087946A95D1F7D6010E9418122B013C0171
:101190007AE076946794579447947A95D1F78114BE
:1011A0009104A104B10471F0C301B2014AE0660FD9
:1011B000771F881F991F4A95D1F7A50194010E94B6
:1011C0009C1303C020E030E0A901DA01C9010196B7
:1011D000A11DB11DB695A795979587958134910569
:1011E000A105B10530F181389105A105B10530F1B6
:1011F000813C9105A105B10530F18130F1E09F07F7
:10120000A105B10528F1893321E09207A105B105B7
:1012100020F18B3931E09307A105B10518F18B3925
:101220009240A105B10518F1E0E0F0E0A0E0B0E0E7
:1012300022C0EEEBF1E0A2EFB1E01DC0E1EDF2E083
:10124000A4E1B2E018C0EBE7F3E0AFE3B2E013C013
:10125000EEEFF3E0A0E7B2E00EC0ECEFF1E0AFE6B6
:10126000B1E009C0EBEFF0E0A2EDB0E004C0E2E1D4
:10127000F0E0A8E1B0E0A50194010E9418124B0132
:101280005C0150E2950EA11CB11CDF01A30192018B
:101290000E941812A5019401261B370B480B590B0D
:1012A000CA01B9012EE096958795779567952A959D
:1012B000D1F704C060E070E081E090E00E94F91096
:1012C000F701648B758B868B978B11E020E030E003
:1012D00040E857E40E94F41081110BC009C080E07F
:1012E00090E0A0E8B7E4F701848B958BA68BB78BD1
:1012F00010E0812F29960FB6F894DEBF0FBECDBF48
:10130000DF91CF911F910F91FF90EF90DF90CF90E1
:10131000BF90AF909F908F907F906F905F904F9015
:1013200008951F920F920FB60F9211242F933F939F
:101330004F935F936F937F938F939F93AF93BF93DD
:10134000EF93FF938091B900887F803609F49CC0A9
:1013500068F5883209F45BC090F4803109F454C018
:1013600038F4882309F4F6C0883009F44DC0F6C07B
:10137000883109F44CC0803209F45DC0EFC080347C
:1013800009F468C048F4803309F455C0883309F083
:10139000E5C080933602D8C0803509F44FC0883547
:1013A00009F45DC0883409F0D9C0D6C0883909F481
:1013B000C7C0A8F4883709F467C038F4883609F440
:1013C00063C0803709F460C0C9C0883809F4B8C068
:1013D000803909F45FC0803809F0C0C05BC0803B31
:1013E00009F486C038F4803A09F466C0883A09F4F2
:1013F0007FC0B4C0803C09F4A7C0883C09F4A4C0F5
:10140000883B09F48AC0AAC08091130210C0909151
:10141000350280913402981770F5E091350281E031
:101420008E0F80933502F0E0EC5EFD4F808180935B
:10143000BB0085EC86C0809336028EC0E0913502F9
:1014400081E08E0F809335028091BB00F0E0EC5E6E
:10145000FD4F808390913502809134026EC0E091FF
:10146000350281E08E0F809335028091BB00F0E061
:10147000EC5EFD4F80838091780281116DC081E028
:101480008093770284EA61C083E0809379021092AE
:101490001202CFCF80911202803208F051C0E09149
:1014A000120281E08E0F809312028091BB00F0E067
:1014B000EE50FE4F8083BDCF85EC8093BC00109230
:1014C000790280911202803230F4E0911202F0E051
:1014D000EE50FE4F10826091120270E0E091F00138
:1014E000F091F10182EF91E009951092120236C05D
:1014F00084E0809379021092EF011092EE01E09166
:10150000EC01F091ED0109958091EE01811105C08A
:1015100081E08093EE011092CC01E091EF0181E037
:101520008E0F8093EF01F0E0E453FE4F80818093B3
:10153000BB009091EF018091EE01981708F479CFEC
:1015400085E88093BC000AC085EC8093BC001092B3
:10155000790204C0109236020E945103FF91EF916C
:10156000BF91AF919F918F917F916F915F914F91BB
:101570003F912F910F900FBE0F901F9018958330C1
:1015800081F028F4813099F08230A1F008958730FD
:10159000A9F08830B9F08430D1F4809180008F7D3B
:1015A00003C0809180008F7780938000089584B578
:1015B0008F7702C084B58F7D84BD08958091B0007F
:1015C0008F7703C08091B0008F7D8093B000089525
:1015D0003FB7F8948091AD029091AE02A091AF0216
:1015E000B091B00226B5A89B05C02F3F19F0019617
:1015F000A11DB11D3FBFBA2FA92F982F8827820F99
:10160000911DA11DB11DBC01CD0142E0660F771FE8
:10161000881F991F4A95D1F70895CF92DF92EF92D4
:10162000FF920F931F93CF93DF936C017A018B018D
:10163000C0E0D0E0CE15DF0589F0D8016D918D01B5
:10164000D601ED91FC910190F081E02DC601099544
:10165000892B11F47E0102C02196ECCFC701DF91E6
:10166000CF911F910F91FF90EF90DF90CF90089551
:10167000FC01538D448D252F30E0842F90E0821B98
:10168000930B541710F0CF96089501970895FC011D
:10169000918D828D981761F0828DDF01A80FB11DA9
:1016A0005D968C91928D9F5F9F73928F90E00895CD
:1016B0008FEF9FEF0895FC01918D828D981731F087
:1016C000828DE80FF11D858D90E008958FEF9FEFDB
:1016D0000895FC01918D228D892F90E0805C9F4FB1
:1016E000821B91098F739927089581EB92E00E94E4
:1016F000690B21E0892B09F420E0822F0895FC0179
:10170000848DDF01A80FB11DA35ABF4F2C91848D8A
:1017100090E001968F739927848FA689B7892C93BF
:10172000A089B1898C9180648C93938D848D98135A
:1017300006C00288F389E02D80818F7D8083089523
:10174000EF92FF920F931F93CF93DF93EC0181E011
:10175000888F9B8D8C8D981305C0E889F9898081CD
:1017600085FD24C0F62E0B8D10E00F5F1F4F0F7309
:101770001127E02E8C8DE8120CC00FB607FCFACFB3
:10178000E889F989808185FFF5CFCE010E947F0B22
:10179000F1CF8B8DFE01E80FF11DE35AFF4FF08270
:1017A0000B8FEA89FB898081806207C0EE89FF89FF
:1017B0006083E889F98980818064808381E090E09A
:1017C000DF91CF911F910F91FF90EF900895CF93EC
:1017D000DF93EC01888D8823C9F0EA89FB89808139
:1017E00085FD05C0A889B9898C9186FD0FC00FB60B
:1017F00007FCF5CF808185FFF2CFA889B9898C914C
:1018000085FFEDCFCE010E947F0BE7CFDF91CF9117
:101810000895009769F0FC0101900020E9F73197E5
:10182000AF01481B590BBC0181EB92E00C940D0BEE
:1018300080E090E008958F929F92AF92BF920F93B5
:101840001F93CF93DF93CDB7DEB7A1970FB6F89470
:10185000DEBF0FBECDBF19A2423008F44AE08E01B0
:101860000F5D1F4F842E912CA12CB12CA50194014A
:101870000E949C13E62FB901CA0101501109EA30F8
:1018800014F4E05D01C0E95CD801EC93232B242B18
:10189000252B61F7C8010E94090CA1960FB6F89498
:1018A000DEBF0FBECDBFDF91CF911F910F91BF90D3
:1018B000AF909F908F9008950E94CF150F931F9324
:1018C000CF93DF93EC0188819981009729F02A81D9
:1018D0003B812617370788F48B016F5F7F4F0E948B
:1018E0000515009761F0998388831B830A832C81F7
:1018F0003D81232B11F4FC01108281E001C080E0C6
:10190000DF91CF911F910F910895CF93DF93282FEF
:1019100030E0F901E255FF4F8491F901E656FF4F9F
:10192000D491F901EA57FF4FC491CC2391F0811172
:101930000E94BF0AEC2FF0E0EE0FFF1FE458FF4FAC
:10194000A591B491EC91ED2381E090E021F480E049
:1019500002C080E090E0DF91CF9108951F93CF9374
:10196000DF93282F30E0F901E255FF4F8491F90110
:10197000E656FF4FD491F901EA57FF4FC491CC23AB
:10198000C9F0162F81110E94BF0AEC2FF0E0EE0F74
:10199000FF1FEE58FF4FA591B4918FB7F894111126
:1019A00005C09C91ED2FE095E92302C0EC91ED2B51
:1019B000EC938FBFDF91CF911F910895CF93DF9369
:1019C00090E0FC01E656FF4F2491FC01EA57FF4FDF
:1019D0008491882361F190E0880F991FFC01E859F8
:1019E000FF4FC591D491FC01EE58FF4FA591B491E2
:1019F000611109C09FB7F89488812095822388835C
:101A0000EC912E230BC0623061F49FB7F8943881BB
:101A1000822F809583238883EC912E2B2C939FBF5C
:101A200006C08FB7F894E8812E2B28838FBFDF91F3
:101A3000CF9108958F929F92AF92BF92CF92DF92F3
:101A4000EF92FF926B017C010E94E80A4B015C015E
:101A5000C114D104E104F104F1F00E94E80ADC01B0
:101A6000CB0188199909AA09BB09883E9340A105B1
:101A7000B10570F321E0C21AD108E108F10888EE3F
:101A8000880E83E0981EA11CB11CC114D104E1048E
:101A9000F10419F7DDCFFF90EF90DF90CF90BF906A
:101AA000AF909F908F9008951F920F920FB60F9254
:101AB00011242F933F938F939F93AF93BF93809164
:101AC000800290918102A0918202B09183023091B4
:101AD000AC0223E0230F2D3720F40196A11DB11D88
:101AE00005C026E8230F0296A11DB11D2093AC026C
:101AF0008093800290938102A0938202B09383022C
:101B00008091AD029091AE02A091AF02B091B0026F
:101B10000196A11DB11D8093AD029093AE02A093DA
:101B2000AF02B093B002BF91AF919F918F913F915F
:101B30002F910F900FBE0F901F901895CF93DF93AA
:101B4000EC0188819981009711F00E946D1419822F
:101B500018821D821C821B821A82DF91CF91089508
:101B6000EF92FF920F931F93CF93DF93EC01FB0152
:101B700084819581E080F1800C811D81E114F10464
:101B8000B1F00097B9F0080F191FB801CE010E94FB
:101B90005E0C882361F0288139818C819D81B70199
:101BA000820F931F0E94DD151D830C8303C0CE019D
:101BB0000E949E0DCE01DF91CF911F910F91FF905A
:101BC000EF900895EF92FF920F931F93CF93DF93BF
:101BD000EC017B018A01BA010E945E0C811104C0F4
:101BE000CE010E949E0D07C01D830C83B701888122
:101BF00099810E94DD15CE01DF91CF911F910F9148
:101C0000FF90EF900895CF93DF93EC01FB018617CF
:101C1000970761F0608171816115710529F0448138
:101C200055810E94E20D02C00E949E0DCE01DF91FF
:101C3000CF910895FC01808191810C946D14FC0179
:101C4000118210821382128215821482611571052D
:101C500051F0FB0101900020E9F73197AF01461BDD
:101C6000570B0C94E20D08951F920F920FB60F922E
:101C700011242F933F934F935F936F937F938F9391
:101C80009F93AF93BF93EF93FF9381EB92E00E94FA
:101C90007F0BFF91EF91BF91AF919F918F917F91BA
:101CA0006F915F914F913F912F910F900FBE0F90C9
:101CB0001F9018951F920F920FB60F9211242F9319
:101CC0008F939F93EF93FF93E091C102F091C20233
:101CD0008081E091C702F091C80282FD12C090811C
:101CE0008091CA028F5F8F732091CB02821751F0CF
:101CF000E091CA02F0E0EF54FD4F958F8093CA0245
:101D000001C08081FF91EF919F918F912F910F9052
:101D10000FBE0F901F901895E1EBF2E01382128234
:101D200088EE93E0A0E0B0E084839583A683B78338
:101D300028E731E03183208325EC30E035872487A4
:101D400024EC30E03787268720EC30E0318B208B85
:101D500021EC30E0338B228B22EC30E0358B248B6E
:101D600026EC30E0378B268B118E128E138E148E5C
:101D7000E4E8F2E01382128284839583A683B7831A
:101D80008AE891E0918380830895CF93DF9300D018
:101D900000D000D0CDB7DEB7789484B5826084BD22
:101DA00084B5816084BD85B5826085BD85B581605F
:101DB00085BD80916E00816080936E0010928100DD
:101DC0008091810082608093810080918100816098
:101DD0008093810080918000816080938000809159
:101DE000B10084608093B1008091B00081608093E5
:101DF000B00080917A00846080937A0080917A00AC
:101E0000826080937A0080917A00816080937A006A
:101E100080917A00806880937A001092C100E091EE
:101E2000C102F091C20212E01083E091BD02F09174
:101E3000BE021082E091BF02F091C0028FEC80835D
:101E40001092C902E091C502F091C60206E000833B
:101E5000E091C302F091C402808180618083E091AF
:101E6000C302F091C402808188608083E091C30244
:101E7000F091C402808180688083E091C302F09178
:101E8000C40280818F7D808388E090E00E94D81317
:101E9000FC0112831383148284E291E09183808396
:101EA00084E191E09683858311E01783F0939F028C
:101EB000E0939E0285E090E00E94D8137C0183E0CD
:101EC000D70112968C93129784E591E08D939C93A1
:101ED00080E190E00E94D813FC0188E391E09183B7
:101EE000808389E385831682178211861086138684
:101EF000128683E090E0A0E0B0E084879587A68713
:101F0000B787D7011496FC93EE93139761E0CF0146
:101F10000E94850260E070E0F701838194810E9455
:101F20000E07F092A302E092A20285E090E00E94E8
:101F3000D8137C018EE591E0D70111969C938E9386
:101F400013960C93139712961C93129714961C9247
:101F5000C7010E942106F0929102E09290028BE06C
:101F600090E00E94D813FC0180919202909193021C
:101F70002091A0023091A1024AE651E051834083B2
:101F8000338322839583848316831783128680E2AA
:101F900080871186F0939D02E0939C0286EA91E08F
:101FA0000E94090C80919E0290919F02DC01ED91AC
:101FB000FC910190F081E02D0995BC01990F880BEF
:101FC000990B0E94FB1020E030E040E251E40E94B7
:101FD000D6126B017C014B015C019B01AC010E949C
:101FE0008313882319F089EB91E01AC02601370189
:101FF000E89477F82FEF3FEF4FE75FE7C301B201B7
:102000000E94831381110FC02FEF3FEF4FE75FE76F
:10201000C301B2010E94F41018162CF48DEB91E06C
:102020000E94090C84C02FEF3FEF4FE75FE4C70128
:10203000B6010E947E1318161CF481EC91E0F0CFDB
:102040002FEF3FEF4FE75FECC701B6010E94F4109E
:1020500087FDF3CF20E030E0A901C701B6010E945F
:10206000F41087FF11C0E091B102F091B20201902B
:10207000F081E02D6DE281EB92E009954601570178
:10208000B7FAB094B7F8B0942AE037ED43EA5BE3CF
:10209000C501B4010E946A124B015C010E944F13FA
:1020A0006B017C010E94F9109B01AC01C501B401D8
:1020B0000E9469124B015C014AE0C701B6010E940F
:1020C0001B0CE091B102F091B2020190F081E02D81
:1020D0006EE281EB92E0099520E030E040E251E4CD
:1020E000C501B4010E945A114B015C010E944F13BB
:1020F0006B01E12CF12C4AE0C701B6010E941B0CD8
:10210000C701B6010E94F9109B01AC01C501B401E1
:102110000E94691220E030E040E251E40E945A112E
:102120000E944F1380E090E04AE00E941B0C85EC77
:1021300091E00E94090C80919C0290919D02DC012B
:10214000ED91FC910680F781E02D09958823C9F077
:1021500060919C0270919D02DB01ED91FC910084E5
:10216000F185E02DCE01019609954D815E81698151
:102170007A8181EB92E00E940D0BCE0101960E94C4
:102180001A0E68EE73E080E090E00E941A0D0E9443
:102190008C0004CFBB27FB015527AA27880F991F66
:1021A000AA1FA41710F0A41B83955051B9F7A05D86
:1021B000AA3308F0A95DA193009779F7B111B19303
:1021C0001192CB010C94E410DC01FC01672F71919A
:1021D0007723E1F7329704C07C916D93708362910D
:1021E000AE17BF07C8F308950E94361108F481E0C6
:1021F0000895E89409C097FB3EF4909580957095FA
:1022000061957F4F8F4F9F4F9923A9F0F92F96E942
:10221000BB279395F695879577956795B795F111B7
:10222000F8CFFAF4BB0F11F460FF1BC06F5F7F4F54
:102230008F4F9F4F16C0882311F096E911C0772366
:1022400021F09EE8872F762F05C0662371F096E86F
:10225000862F70E060E02AF09A95660F771F881F3E
:10226000DAF7880F9695879597F90895990F0008E2
:10227000550FAA0BE0E8FEEF16161706E807F90758
:10228000C0F012161306E407F50798F0621B730BF3
:10229000840B950B39F40A2661F0232B242B252B74
:1022A00021F408950A2609F4A140A6958FEF811D17
:1022B000811D08950E946D110C94DE110E94D011B1
:1022C00038F00E94D71120F0952311F00C94C7111B
:1022D0000C94CD1111240C9412120E94EF1170F382
:1022E000959FC1F3950F50E0551F629FF001729FBB
:1022F000BB27F00DB11D639FAA27F00DB11DAA1FCA
:10230000649F6627B00DA11D661F829F2227B00D16
:10231000A11D621F739FB00DA11D621F839FA00DA1
:10232000611D221F749F3327A00D611D231F849FF1
:10233000600D211D822F762F6A2F11249F57504048
:102340009AF0F1F088234AF0EE0FFF1FBB1F661FC3
:10235000771F881F91505040A9F79E3F510580F08C
:102360000C94C7110C9412125F3FE4F3983ED4F31F
:10237000869577956795B795F795E7959F5FC1F730
:10238000FE2B880F911D9695879597F9089597F9DB
:102390009F6780E870E060E008959FEF80EC08950B
:1023A00000240A9416161706180609060895002434
:1023B0000A9412161306140605060895092E0394AE
:1023C000000C11F4882352F0BB0F40F4BF2B11F422
:1023D00060FF04C06F5F7F4F8F4F9F4F089557FD81
:1023E0009058440F551F59F05F3F71F04795880F83
:1023F00097FB991F61F09F3F79F08795089512161A
:1024000013061406551FF2CF4695F1DF08C01616C5
:1024100017061806991FF1CF869571056105089476
:102420000895E894BB2766277727CB0197F908958D
:102430000E945A12A59F900DB49F900DA49F800DED
:10244000911D112408952F923F924F925F926F92A7
:102450007F928F929F92AF92BF92CF92DF92EF9234
:10246000FF920F931F93CF93DF93CDB7DEB7CA1BB5
:10247000DB0B0FB6F894DEBF0FBECDBF09942A88E0
:10248000398848885F846E847D848C849B84AA8488
:10249000B984C884DF80EE80FD800C811B81AA8115
:1024A000B981CE0FD11D0FB6F894DEBF0FBECDBFE0
:1024B000ED010895A29FB001B39FC001A39F700DCD
:1024C000811D1124911DB29F700D811D1124911D3C
:1024D00008955058BB27AA270E9481120C94DE1140
:1024E0000E94D01138F00E94D71120F039F49F3F9C
:1024F00019F426F40C94CD110EF4E095E7FB0C943E
:10250000C711E92F0E94EF1158F3BA17620773073A
:102510008407950720F079F4A6F50C9411120EF4B7
:10252000E0950B2EBA2FA02D0B01B90190010C01E3
:10253000CA01A0011124FF27591B99F0593F50F4FB
:10254000503E68F11A16F040A22F232F342F442753
:10255000585FF3CF469537952795A795F04053954B
:10256000C9F77EF41F16BA0B620B730B840BBAF01B
:102570009150A1F0FF0FBB1F661F771F881FC2F786
:102580000EC0BA0F621F731F841F48F4879577959A
:102590006795B795F7959E3F08F0B0CF9395880F54
:1025A00008F09927EE0F9795879508950E94EA12F3
:1025B0000C94DE110E94D71158F00E94D01140F007
:1025C00029F45F3F29F00C94C71151110C94121299
:1025D0000C94CD110E94EF1168F39923B1F35523A8
:1025E00091F3951B550BBB27AA2762177307840726
:1025F00038F09F5F5F4F220F331F441FAA1FA9F3BC
:1026000035D00E2E3AF0E0E832D091505040E695A9
:10261000001CCAF72BD0FE2F29D0660F771F881F0A
:10262000BB1F261737074807AB07B0E809F0BB0BFD
:10263000802DBF01FF2793585F4F3AF09E3F510511
:1026400078F00C94C7110C9412125F3FE4F3983E9B
:10265000D4F3869577956795B795F7959F5FC9F7FA
:10266000880F911D9695879597F90895E1E0660F7B
:10267000771F881FBB1F621773078407BA0720F0F4
:10268000621B730B840BBA0BEE1F88F7E09508955D
:102690000E944F136894B1110C94121208950E9475
:1026A000F71188F09F5798F0B92F9927B751B0F0DC
:1026B000E1F0660F771F881F991F1AF0BA95C9F7C6
:1026C00014C0B13091F00E941112B1E008950C9441
:1026D0001112672F782F8827B85F39F0B93FCCF3F4
:1026E000869577956795B395D9F73EF49095809543
:1026F000709561957F4F8F4F9F4F08950E943611BF
:1027000008F48FEF08950E943611880B990B0895F5
:1027100097FB072E16F4009407D077FD09D00E948E
:10272000BE1307FC05D03EF4909581959F4F089508
:10273000709561957F4F0895A1E21A2EAA1BBB1BCD
:10274000FD010DC0AA1FBB1FEE1FFF1FA217B3077D
:10275000E407F50720F0A21BB30BE40BF50B661F93
:10276000771F881F991F1A9469F760957095809557
:1027700090959B01AC01BD01CF010895AA1BBB1B25
:1027800051E107C0AA1FBB1FA617B70710F0A61B71
:10279000B70B881F991F5A95A9F780959095BC0192
:1027A000CD010895EE0FFF1F0590F491E02D0994DF
:1027B000CF93DF938230910510F482E090E0E091B6
:1027C0005003F091510320E030E0C0E0D0E03097BA
:1027D00011F14081518148175907C0F04817590736
:1027E00061F482819381209719F09B838A832BC0A7
:1027F000909351038093500326C02115310519F0A1
:102800004217530718F49A01BE01DF01EF0102805D
:10281000F381E02DDCCF2115310509F1281B390B9F
:102820002430310590F412968D919C911397611587
:10283000710521F0FB019383828304C090935103BF
:1028400080935003FD01329644C0FD01E20FF31F57
:1028500081939193225031092D933C933AC020915A
:102860004E0330914F03232B41F42091020130910C
:10287000030130934F0320934E03209100013091C8
:1028800001012115310541F42DB73EB740910401F6
:1028900050910501241B350BE0914E03F0914F033D
:1028A000E217F307A0F42E1B3F0B2817390778F027
:1028B000AC014E5F5F4F2417350748F04E0F5F1F86
:1028C00050934F0340934E038193919302C0E0E0F5
:1028D000F0E0CF01DF91CF9108950F931F93CF9335
:1028E000DF93009709F48CC0FC01329713821282A7
:1028F00000915003109151030115110581F42081BD
:102900003181820F931F20914E0330914F0328177E
:10291000390779F5F0934F03E0934E0371C0D80166
:1029200040E050E0AE17BF0750F412962D913C9155
:102930001397AD012115310509F1D901F3CF9D019F
:10294000DA013383228360817181860F971F82179A
:10295000930769F4EC0128813981260F371F2E5F18
:102960003F4F318320838A819B8193838283452BD0
:1029700029F4F0935103E093500342C01396FC9363
:10298000EE931297ED01499159919E01240F351F45
:10299000E217F30771F480819181840F951F0296ED
:1029A00011969C938E938281938113969C938E9320
:1029B0001297E0E0F0E0D80112968D919C91139768
:1029C000009719F0F8018C01F6CF8D919C91980138
:1029D0002E5F3F4F820F931F20914E0330914F0384
:1029E0002817390769F4309729F41092510310928F
:1029F000500302C01382128210934F0300934E03C0
:102A0000DF91CF911F910F910895A0E0B0E0EBE02E
:102A1000F5E10C942712EC01009721F4CB010E9400
:102A2000D813B8C0FC01E60FF71F9C0122503109F2
:102A3000E217F30708F4ACC0D9010D911C9111976E
:102A400006171707B0F00530110508F49FC0C8013C
:102A500004978617970708F499C002501109061BBE
:102A6000170B019311936D937C93CF010E946D140A
:102A70008DC05B01A01AB10A4C01800E911EA0917D
:102A80005003B091510340E050E0E12CF12C10973D
:102A900009F44AC0A815B905D1F56D907C9011973D
:102AA000630182E0C80ED11CCA14DB0480F1A301CB
:102AB0004A195B096A0182E0C80ED11C1296BC90CB
:102AC00012971396AC91B5E0CB16D10440F0B282C8
:102AD000A38351834083D9016D937C930AC00E5F19
:102AE0001F4FC301800F911FF90191838083EB2D4C
:102AF000FA2FE114F10431F0D7011396FC93EE9311
:102B0000129744C0F0935103E09350033FC08D915E
:102B10009C9111974817590708F4AC017D01129652
:102B20000D90BC91A02DB3CF80914E0390914F0397
:102B300088159905E1F446175707C8F480910001FC
:102B400090910101009741F48DB79EB74091040127
:102B500050910501841B950BE817F907C8F4F09311
:102B60004F03E0934E03F901718360830FC0CB01E3
:102B70000E94D8137C01009759F0A801BE010E9461
:102B8000D415CE010E946D14C70104C0CE0102C04D
:102B900080E090E0CDB7DEB7EEE00C94431281E028
:102BA00090E0F8940C94F315FB01DC0102C0019055
:102BB0000D9241505040D8F70895FB01DC0101907F
:102BC0000D920020E1F70895FB01DC0141505040D7
:102BD00048F001900D920020C9F701C01D924150AC
:0A2BE0005040E0F70895F894FFCF8D
:102BEA0000005203800000000000FD030907E8030B
:102BFA0000000000D501C8003604BF016A0458016C
:102C0A000000000051020C07E20300000000250248
:102C1A000A07EA03000000000D07EE038502C00759
:102C2A000D05000000000000000088025C0C5C0C2E
:102C3A000000000028020B07EC0300000000200639
:102C4A00E603F003C700000000001F06E403C30008
:102C5A009600340600000000A00B0D0B380BE70BA2
:102C6A00690B470B5B0B00000000B30383034E03A1
:102C7A008902AD0299028A0254534C323536310028
:102C8A0020300020310043757272656E74204875D9
:102C9A006D69646974793A20006E616E00696E66C6
:0C2CAA00006F766600255248200A0000EA
:00000001FF
