:100000000C9463000C948B000C948B000C948B006C
:100010000C948B000C948B000C948B000C948B0034
:100020000C948B000C948B000C948B000C948B0024
:100030000C948B000C948B000C948B000C948B0014
:100040000C949E0E0C948B000C9490070C946A07F1
:100050000C948B000C948B000C948B000C948B00F4
:100060000C945C0A0C948B00000000002400270014
:100070002A0000000000250028002B0000000000DE
:1000800023002600290004040404040404040202DA
:100090000202020203030303030301020408102007
:1000A0004080010204081020010204081020000012
:1000B0000008000201000003040700000000000027
:1000C00000001013E80E11241FBECFEFD8E0DEBFF2
:1000D000CDBF11E0A0E0B1E0E0E5F0E302C00590A3
:1000E0000D92AE3CB107D9F723E0AEECB1E001C010
:1000F0001D92AE33B207E1F710E0C2E6D0E004C0D3
:100100002197FE010E941E17C136D107C9F70E9430
:10011000EC0E0C941B180C9400000895CF92DF9203
:10012000EF92FF920F931F93CF93DF936C017A01AD
:100130008B01C0E0D0E0CE15DF0589F0D8016D91CC
:100140008D01D601ED91FC910190F081E02DC60169
:100150000995892B11F47E0102C02196ECCFC701CD
:10016000DF91CF911F910F91FF90EF90DF90CF9093
:100170000895FC01538D448D252F30E0842F90E0AD
:10018000821B930B541710F0CF9608950197089592
:10019000FC01918D828D981761F0828DDF01A80F8F
:1001A000B11D5D968C91928D9F5F9F73928F90E0B1
:1001B00008958FEF9FEF0895FC01918D828D981720
:1001C00031F0828DE80FF11D858D90E008958FEF5D
:1001D0009FEF0895FC01918D228D892F90E0805C26
:1001E0009F4F821B91098F739927089586E892E0AB
:1001F0000E94EA0021E0892B09F420E0822F089573
:10020000FC01848DDF01A80FB11DA35ABF4F2C91B3
:10021000848D90E001968F739927848FA689B78982
:100220002C93A089B1898C9180648C93938D848D5B
:10023000981306C00288F389E02D80818F7D80832A
:100240000895EF92FF920F931F93CF93DF93EC01EA
:1002500081E0888F9B8D8C8D981305C0E889F98982
:10026000808185FD24C0F62E0B8D10E00F5F1F4F9F
:100270000F731127E02E8C8DE8120CC00FB607FC0F
:10028000FACFE889F989808185FFF5CFCE010E94F8
:100290000001F1CF8B8DFE01E80FF11DE35AFF4FF6
:1002A000F0820B8FEA89FB898081806207C0EE892A
:1002B000FF896083E889F98980818064808381E097
:1002C00090E0DF91CF911F910F91FF90EF900895F3
:1002D000CF93DF93EC01888D8823C9F0EA89FB89ED
:1002E000808185FD05C0A889B9898C9186FD0FC0E4
:1002F0000FB607FCF5CF808185FFF2CFA889B989B9
:100300008C9185FFEDCFCE010E940001E7CFDF91F8
:10031000CF91089580E090E0892B29F00E94F600AB
:1003200081110C940000089508958F929F92AF92CE
:10033000BF92CF92DF92EF92FF920F931F93CF93D2
:10034000DF93CDB7DEB7AC970FB6F894DEBF0FBE24
:10035000CDBF6C014A015901CE0101967C0188E2B2
:10036000D7011D928A95E9F7D601ED91FC910084A1
:10037000F185E02DA701C6010995009709F04DC050
:100380001CA61BA61AA619A6D601ED91FC91028403
:10039000F385E02D9E01275D3F4FAE01455D5F4F28
:1003A000B701C60109950097C1F50115110539F08E
:1003B00088E2F701D80101900D928A95E1F7811446
:1003C000910499F06BA57CA5072E000C880B990B66
:1003D0000E94BE1420E030E040E251E40E942C165E
:1003E000F4016083718382839383A114B104B9F013
:1003F00069A57AA5072E000C880B990B0E94BE14E4
:1004000020E030E040E251E40E942C16D5016D93CB
:100410007D938D939C93139702C0282F02C020E0F8
:1004200090E0822FAC960FB6F894DEBF0FBECDBF22
:10043000DF91CF911F910F91FF90EF90DF90CF90C0
:10044000BF90AF909F908F9008958F929F92AF92A0
:10045000BF92CF92DF92EF92FF920F931F93CF93B1
:10046000DF93EC018B015A016901E881F981068073
:10047000F781E02D0995982EE881F981B801685F30
:100480007F4F0680F781E02DCE010995F82EE88197
:10049000F981B801605F7F4F0680F781E02DCE01C2
:1004A0000995882EE881F981B801685E7F4F068042
:1004B000F781E02DCE010995E82EE881F981B80198
:1004C000605E7F4F0680F781E02DCE0109959F2D5C
:1004D000990D980D9E0D891310C02E2D30E03829EE
:1004E000F501318320834F2D50E0CA019929F6018F
:1004F0009183808380E090E002C089E690E0DF9104
:10050000CF911F910F91FF90EF90DF90CF90BF9010
:10051000AF909F908F90089540E050E080E0A7E07A
:10052000B0E0FB012191BF01FD01E41BF50B01C00F
:10053000220FEA95EAF7820F4F5F5F4F483051056F
:1005400081F70895CF92DF92EF92FF920F931F935E
:10055000CF93DF93CDB7DEB728970FB6F894DEBF01
:100560000FBECDBF6A0179011D821E821F821886CF
:1005700019821A821B821C82DC01ED91FC9102809F
:10058000F381E02D9E012F5F3F4FAE014B5F5F4F28
:100590000995892BB1F4C114D10441F06D817E819C
:1005A0008F8198850E949E16F6016083E114F10404
:1005B00041F069817A818B819C810E949E16D701CE
:1005C0006C9380E090E028960FB6F894DEBF0FBEE3
:1005D000CDBFDF91CF911F910F91FF90EF90DF90F2
:1005E000CF90089520E331E0DC0111963C932E93E7
:1005F00012968D919C911397009739F0DC01ED9143
:10060000FC910280F381E02D099408950F931F93CC
:10061000CF93DF9300D000D0CDB7DEB7FC012681A9
:100620006281049670E000E010E0222331F09E0128
:100630002F5F3F4F40E050E005C020E030E0AE01CA
:100640004F5F5F4F0E94950120E030E040E251E4AF
:1006500069817A818B819C810E941D150E949E1662
:10066000CB010F900F900F900F90DF91CF911F91C2
:100670000F910895FC016783089508950895E0910E
:100680007D0280917C02E81730F4F0E0E75AFD4FDC
:10069000808190E008958FEF9FEF089590917D0203
:1006A00080917C02981750F4E92FF0E0E75AFD4F53
:1006B000208130E09F5F90937D0202C02FEF3FEFDB
:1006C000C901089580917C0290E020917D02821BF7
:1006D0009109089520917E0290918002213208F0C4
:1006E0004AC080917B028111FCCF32E030937B02C3
:1006F00031E030937A023FEF3093380210923702A4
:1007000020933602A9E3B2E046E152E0FA013E2F1F
:10071000341B321718F43D913193F9CF1092150222
:1007200020911502990F922B9093150290917902C6
:10073000913061F410927902909115029093BB0070
:100740009091BC0093FDF8CF95EC01C095EE90938D
:10075000BC0090917B029230E1F3909138029F3F70
:1007600079F080913802803241F0809138028033F4
:1007700031F084E005C081E003C082E001C083E085
:1007800010927F0210927E021092810208950F93C0
:100790001F93CF93DF931F92CDB7DEB78C01DC019F
:1007A00015968C91159791E0909381028093800229
:1007B00010927F0210927E0213968D919C91149755
:1007C000DC01ED91FC910190F081E02D49830995C8
:1007D000F80183819481DC01ED91FC910190F0811D
:1007E000E02D4981642F0995F801838194810F9050
:1007F000DF91CF911F910F910C946A0340E060E864
:100800000C94C703089580E090E0089585ED8093EF
:10081000BC008091BC0084FDFCCF10927B02089547
:100820004091F001262F30E0240F311D2132310597
:10083000DCF420917B022430C9F4FC0180E090E0DC
:10084000861758F43091F0012191DC01A253BE4F7C
:10085000A30FB11D2C930196F3CF8091F001680F87
:100860006093F00180E0089581E0089582E00895AA
:10087000CF92DF92EF92FF920F931F93CF93DF936C
:100880007C01262F972F8A0180918102882391F085
:10089000C62FD72F6E01C40ED51ECC15DD0571F005
:1008A0006991D701ED91FC910190F081E02DC70194
:1008B0000995F3CF642F822F0E941004C801DF91A5
:1008C000CF911F910F91FF90EF90DF90CF900895FF
:1008D000CF93DF931F92CDB7DEB76983209181025A
:1008E0002223D1F020917E02203240F021E030E03E
:1008F000FC013383228380E090E015C080917F0269
:10090000E82FF0E0E75CFD4F998190838F5F809343
:100910007F0280937E0205C061E0CE0101960E94B5
:10092000100481E090E00F90DF91CF9108950C9436
:10093000E3130C94E3130C94E3130C94E313CF939D
:10094000DF93EC010E94F202CE01DF91CF910C9473
:10095000E3130C94E3130C94E313CF93DF93EC01B4
:1009600061E08A810E94110E61E08A81DF91CF915E
:100970000C94E10D1F93CF93DF93FC01C481D581CB
:10098000128161E0812F0E94110E209709F447C067
:10099000CF3FD10509F445C0E12FF0E0E255FF4F0C
:1009A000E491E330F9F048F4E130B9F0E230A1F538
:1009B00084B5806284BDC8BD3BC0E730E9F0E83053
:1009C00019F1E43049F580918000806280938000C5
:1009D000D0938B00C0938A002BC084B5806884BDFF
:1009E000C7BD26C080918000806880938000D0932E
:1009F0008900C09388001CC08091B00080688093FB
:100A0000B000C093B30014C08091B00080628093A6
:100A1000B000C093B4000CC0C038D10514F460E03D
:100A200001C061E0812FDF91CF911F910C94E10D06
:100A3000DF91CF911F9108950F931F93CF93DF9371
:100A4000EC018B818F3F39F48A81DF91CF911F9127
:100A50000F910C944D0E61E00E94110E61E08B81AC
:100A60000E94E10D64EF71E080E090E00E94640E6E
:100A70008A810E944D0E8C016CE271E080E090E072
:100A80000E94640E61E08B810E94110E60E08B81F8
:100A90000E94110E60E08B810E94E10DC801DF9180
:100AA000CF911F910F9108950F931F93CF93DF93D1
:100AB000EC0161E08C810E94110E61E08C810E944A
:100AC000E10D64E670E080E090E00E94640ECE01EB
:100AD0000E941C058C0160E08C810E94E10D61E0A8
:100AE0008C810E94110E60E08C810E94110E60E0EA
:100AF0008C810E94E10DC801DF91CF911F910F9170
:100B00000895AF92BF92DF92EF92FF920F931F93DF
:100B1000CF93DF93D62ECA016AE070E00E94D4160C
:100B20007B01C0E0D0E0022F10E083E2A82EB12CC0
:100B3000EC16FD065CF08D2D0E94B80D8017910714
:100B400041F4F5013197F1F72196F2CF8FEF9FEF46
:100B500002C080E090E0DF91CF911F910F91FF9054
:100B6000EF90DF90BF90AF9008958F929F92AF92D9
:100B7000BF92CF92DF92EF92FF920F931F93CF938A
:100B8000DF938C01EB017A0188E2DA011D928A95EC
:100B9000E9F761E08C2F0E94110E60E08C2F0E941B
:100BA000E10D8BE99FE00197F1F761E08C2F0E9446
:100BB000E10D60E08C2F0E94110E83E790E0019719
:100BC000F1F7D801ED91FC910480F581E02D20E052
:100BD00040E550E0BE01C8010995892BB9F5D8015F
:100BE000ED91FC910480F581E02D21E040E550E09D
:100BF000BE01C8010995892B61F55701B8E2AB0E1A
:100C0000B11C83E2882E912CD801ED91FC910480D7
:100C1000F581E02D20E042E350E0BE01C8010995D6
:100C2000892BD1F4C12CD12C8C2F0E94B80D0197A7
:100C3000B1F4C4010197F1F7BFEFCB1ADB0AE8E08A
:100C4000CE16D10489F787E690E025C084E690E0CF
:100C500022C085E690E01FC086E690E01CC081E0DF
:100C6000B4E0CB16D1040CF480E0F70181937F014E
:100C7000EA15FB0549F6D801ED91FC910480F58158
:100C8000E02D20E042E350E0BE01C8010995009745
:100C900011F088E690E0DF91CF911F910F91FF90C6
:100CA000EF90DF90CF90BF90AF909F908F9008957E
:100CB0000F931F93CF93DF938C01EB0188E2FB012D
:100CC00011928A95E9F74BE050E064E971E0CE01BA
:100CD0000E940C181B8681E090E0A0E0B0E08C87B9
:100CE0009D87AE87BF87F80184859585A685B785E2
:100CF000888B998BAA8BBB8B85E090E0A0E0B0E05D
:100D00008C8B9D8BAE8BBF8B1CA21DA21EA21FA223
:100D100080E090EDA4E8B6E4888F998FAA8FBB8F0E
:100D200080E090E0A0E8BFE38C8F9D8FAE8FBF8FF7
:100D300088A399A3AAA3BBA3DF91CF911F910F9181
:100D4000089580917B028111FCCF842F413208F0FD
:100D500080E291E090937B0290937A022FEF2093B0
:100D6000380210923702280F209336029093150212
:100D700090911502660F692B60931502909179028C
:100D8000913061F410927902909115029093BB001A
:100D90009091BC0093FDF8CF95EC01C095EE909337
:100DA000BC0090917B029130E1F39091370298174B
:100DB00010F480913702A6E1B2E029E532E0F901B2
:100DC0009E2F921B981718F49D919193F9CF109232
:100DD0007D0280937C0208950F931F93CF93DF933E
:100DE000EC018D8191E090938102809380021092BA
:100DF0007F0210927E028B819C81DC01ED91FC913F
:100E00000190F081E02D09958B819C810E946A03FD
:100E10006D81062E000C770B42E050E08B819C81A7
:100E20000E94A1068B819C81DC01ED91FC910284E2
:100E3000F385E02D09958C018B819C81DC01ED917E
:100E4000FC910284F385E02D099520E030E0382FF5
:100E5000C901802B912BDF91CF911F910F910895A4
:100E6000EF92FF920F931F93CF93DF93EC017B01DF
:100E70008A0143E060E80E94C7038885998500974E
:100E800039F0019751F468E770E080E090E009C024
:100E90006FE070E080E090E004C062EC71E080E020
:100EA00090E00E94640E6CEACE010E94EC06F7010D
:100EB000918380836EEACE010E94EC06F801918353
:100EC0008083CE01DF91CF911F910F91FF90EF9022
:100ED0000C94FE031F920F920FB60F9211242F93C2
:100EE0003F934F935F936F937F938F939F93AF93B2
:100EF000BF93EF93FF9386E892E00E940001FF9179
:100F0000EF91BF91AF919F918F917F916F915F9181
:100F10004F913F912F910F900FBE0F901F901895FA
:100F20001F920F920FB60F9211242F938F939F93BE
:100F3000EF93FF93E0919602F09197028081E09108
:100F40009C02F0919D0282FD12C0908180919F02CF
:100F50008F5F8F732091A002821751F0E0919F0262
:100F6000F0E0EA57FD4F958F80939F0201C080818A
:100F7000FF91EF919F918F912F910F900FBE0F9046
:100F80001F9018950895CF93DF93EC0160E08A815C
:100F90000E94110E61E08A810E94110E60E08A8138
:100FA000DF91CF910C94E10D08950895089508956F
:100FB00008950F931F93CF93DF93EC01162F072F04
:100FC0008E81811103C0CE010E94FA0743E060E8E0
:100FD000CE010E94C7034A85412B61E8CE010E94E1
:100FE000C70318870987CE01DF91CF911F910F9119
:100FF0000C94FE031F93CF93DF93EC0183E293E005
:101000009C838B8310927D0210927C0210927F024F
:1010100010927E0210927B0211E010937A021092DD
:10102000790261E082E10E94E10D61E083E10E94CA
:10103000E10D8091B9008E7F8093B9008091B90055
:101040008D7F8093B90088E48093B80085E4809315
:10105000BC008D81109381028093800210927F02E8
:1010600010927E028B819C81DC01ED91FC910190BC
:10107000F081E02D6AE009958B819C810E946A03D2
:101080006D81062E000C770B41E050E08B819C8136
:101090000E94A1068B819C81DC01ED91FC91028470
:1010A000F385E02D099580FD10C01E836885798544
:1010B000CE010E94D9076A857B85CE010E946A080D
:1010C000CE010E94FE0381E001C080E0DF91CF915C
:1010D0001F9108950F931F93CF93DF93EC01162F69
:1010E000072F8E81811103C0CE010E94FA0743E0D1
:1010F00060E8CE010E94C7034885412B61E8CE011C
:101100000E94C7031A870B87CE01DF91CF911F91F1
:101110000F910C94FE034F925F926F927F928F9289
:101120009F92AF92BF92CF92DF92EF92FF920F9376
:101130001F93CF93DF93CDB7DEB729970FB6F894FF
:10114000DEBF0FBECDBF8C017B0184E2FB0111929B
:101150008A95E9F784E290E0A0E0B0E0FB018083AB
:101160009183A283B383F80184859585A685B7858D
:10117000FB0184839583A683B78385E090E0A0E09C
:10118000B0E080879187A287B3872FB7F8948091CA
:10119000820290918302A0918402B09185022FBFB8
:1011A000808B918BA28BB38BF8018681811103C058
:1011B000C8010E94FA07F801878181110AC0AE01B7
:1011C0004B5F5F4FBE01695F7F4FC8010E943007D0
:1011D00059C020E0F80180859185009799F001972A
:1011E00041F478EC872E912CE0EAAE2EECE8BE2E8E
:1011F00010C054EF852E9924939468E1A62E66EFD3
:10120000B62E07C034E6832E912C42EFA42E42E185
:10121000B42EAE014F5F5F4FBE016D5F7F4FC801BF
:1012200029870E9430078B819C812985211124C048
:101230008815990540F4F80122853385232BE1F4C4
:1012400060E170E00BC0A816B906B0F4F801228581
:1012500033852031310581F460E070E0C8010E94DF
:101260006A08AE014F5F5F4FBE016D5F7F4FC801DF
:101270000E94300721E0AECF98878F8389819A81C1
:101280009E838D83CD80DE80AF81B885F801808517
:101290009185009749F08130910519F028EE3DEFD6
:1012A00005C028E830E902C024E233E12A173B07F1
:1012B00008F4E0C02C153D0508F4C7C0009779F08C
:1012C000019739F497EE492E9FE0592E612C712C2D
:1012D0000CC0412C84E0582E612C712C06C0F7E123
:1012E0004F2EF5E75F2E612C712CF80182859385D6
:1012F000892B39F4E4E0440C551C661C771CEA95F4
:10130000D1F7A30192010E94DB154B015C016AE059
:10131000B694A794979487946A95D1F7D6010E94C2
:10132000DB152B013C017AE076946794579447943F
:101330007A95D1F781149104A104B10471F0C3012D
:10134000B2014AE0660F771F881F991F4A95D1F7AF
:10135000A50194010E94E81603C020E030E0A90135
:10136000DA01C9010196A11DB11DB695A795979502
:10137000879581349105A105B10530F1813891053A
:10138000A105B10530F1813C9105A105B10530F110
:101390008130F1E09F07A105B10528F1893321E0F3
:1013A0009207A105B10520F18B3931E09307A10522
:1013B000B10518F18B399240A105B10518F1E0E0B3
:1013C000F0E0A0E0B0E022C0EEEBF1E0A2EFB1E08F
:1013D0001DC0E1EDF2E0A4E1B2E018C0EBE7F3E0FC
:1013E000AFE3B2E013C0EEEFF3E0A0E7B2E00EC06F
:1013F000ECEFF1E0AFE6B1E009C0EBEFF0E0A2ED19
:10140000B0E004C0E2E1F0E0A8E1B0E0A5019401A1
:101410000E94DB154B015C0150E2950EA11CB11C32
:10142000DF01A30192010E94DB15A5019401261B97
:10143000370B480B590BCA01B9012EE096958795D9
:10144000779567952A95D1F704C060E070E081E058
:1014500090E00E94BC14F701648B758B868B978B90
:1014600011E020E030E040E857E40E94B714811119
:101470000BC009C080E090E0A0E8B7E4F701848BDE
:10148000958BA68BB78B10E0812F29960FB6F89419
:10149000DEBF0FBECDBFDF91CF911F910F91FF90A7
:1014A000EF90DF90CF90BF90AF909F908F907F9004
:1014B0006F905F904F9008951F920F920FB60F920A
:1014C00011242F933F934F935F936F937F938F9349
:1014D0009F93AF93BF93EF93FF938091B900887F61
:1014E000803609F49CC068F5883209F45BC090F43A
:1014F000803109F454C038F4882309F4F6C08830E8
:1015000009F44DC0F6C0883109F44CC0803209F4AA
:101510005DC0EFC0803409F468C048F4803309F43A
:1015200055C0883309F0E5C080933802D8C08035B3
:1015300009F44FC0883509F45DC0883409F0D9C07A
:10154000D6C0883909F4C7C0A8F4883709F467C041
:1015500038F4883609F463C0803709F460C0C9C024
:10156000883809F4B8C0803909F45FC0803809F0C0
:10157000C0C05BC0803B09F486C038F4803A09F4EF
:1015800066C0883A09F47FC0B4C0803C09F4A7C0A3
:10159000883C09F4A4C0883B09F48AC0AAC08091A1
:1015A000150210C09091370280913602981770F59D
:1015B000E091370281E08E0F80933702F0E0EA5E1F
:1015C000FD4F80818093BB0085EC86C080933802FC
:1015D0008EC0E091370281E08E0F809337028091B8
:1015E000BB00F0E0EA5EFD4F80839091370280916E
:1015F00036026EC0E091370281E08E0F8093370291
:101600008091BB00F0E0EA5EFD4F808380917A021A
:1016100081116DC081E08093790284EA61C083E02A
:1016200080937B0210921402CFCF809114028032FB
:1016300008F051C0E091140281E08E0F80931402F3
:101640008091BB00F0E0EC50FE4F8083BDCF85EC75
:101650008093BC0010927B0280911402803230F49F
:10166000E0911402F0E0EC50FE4F10826091140201
:1016700070E0E091F201F091F30184EF91E00995BF
:101680001092140236C084E080937B021092F10124
:101690001092F001E091EE01F091EF010995809137
:1016A000F001811105C081E08093F0011092CE011C
:1016B000E091F10181E08E0F8093F101F0E0E253BF
:1016C000FE4F80818093BB009091F1018091F001E9
:1016D000981708F479CF85E88093BC000AC085ECA0
:1016E0008093BC0010927B0204C0109238020E94CA
:1016F0000604FF91EF91BF91AF919F918F917F91E0
:101700006F915F914F913F912F910F900FBE0F906E
:101710001F9018950E94EE17FC018081918100971F
:1017200011F00C947B1460E070E0CB0108950F93EE
:101730001F93CF93DF93EC0188819981009729F063
:101740002A813B812617370788F48B016F5F7F4F13
:101750000E942417009761F0998388831B830A8372
:101760002C813D81232B11F4FC01108281E001C00A
:1017700080E0DF91CF911F910F910895EF92FF923A
:101780000F931F93CF93DF93EC017B018A01BA0182
:101790000E94970B2881398181110DC021153105D7
:1017A00019F0C9010E94E313198218821D821C825C
:1017B0001B821A8206C01D830C83B701C9010E94D7
:1017C0000518CE01DF91CF911F910F91FF90EF90FF
:1017D0000895FB01DC0111961C921E9213961C9237
:1017E0001E92129715961C921E92149786179707B1
:1017F00049F0608171816115710521F04481558145
:101800000C94BE0B0895FC01808191810C94E3132C
:10181000FC011182108213821282158214826115DA
:10182000710551F0FB0101900020E9F73197AF01FC
:10183000461B570B0C94BE0B0895BF92CF92DF92BC
:10184000EF92FF920F931F93CF93DF937C016B0175
:10185000EA0189012417350720F48D2FE901042FAF
:10186000182F6CEC71E0C7010E94080CD601149689
:101870008D919C911597C817D907C8F580179107C6
:1018800008F48C01D601ED91FC911197E00FF11F46
:10189000B08010824D915C91BA016C0F7D1F611573
:1018A000710561F0FB0101900020E9F73197AF016C
:1018B000461B570BC7010E94BE0B13C0F701808166
:1018C0009181009711F00E94E313D70111961C92A9
:1018D0001E9215961C921E92149713961C921E929D
:1018E0001297D601ED91FC91E00FF11FB082C70174
:1018F000DF91CF911F910F91FF90EF90DF90CF90EC
:10190000BF900895833081F028F4813099F08230BF
:10191000A1F008958730A9F08830B9F08430D1F46F
:10192000809180008F7D03C0809180008F778093AD
:101930008000089584B58F7702C084B58F7D84BD03
:1019400008958091B0008F7703C08091B0008F7DA3
:101950008093B00008953FB7F8948091360390913A
:101960003703A0913803B091390326B5A89B05C071
:101970002F3F19F00196A11DB11D3FBFBA2FA92F0E
:10198000982F8827820F911DA11DB11DBC01CD018B
:1019900042E0660F771F881F991F4A95D1F7089577
:1019A000009769F0FC0101900020E9F73197AF0141
:1019B000481B590BBC0186E892E00C948E0080E035
:1019C00090E008952FB7F89480918202909183025D
:1019D000A0918402B09185022FBF80938E029093D4
:1019E0008F02A0939002B0939102E0918602F09151
:1019F00087020284F385E02D86E892E0099597FF3F
:101A000026C02FB7F8948091820290918302A09112
:101A10008402B09185022FBF40918E0250918F02B7
:101A20006091900270919102841B950BA60BB70BED
:101A300040918A0250918B0260918C0270918D02CC
:101A400084179507A607B70780F28FEF9FEF0895D9
:101A50008F929F92AF92BF92CF92DF92EF92FF92BE
:101A60000F931F93CF93DF93CDB7DEB7A1970FB638
:101A7000F894DEBF0FBECDBF6C01990FEE08FF08D2
:101A8000F7FE31C0E0918602F09187020190F0816B
:101A9000E02D6DE286E892E009958C01222733273C
:101AA000A9012C193D094E095F0919A2CE018196A1
:101AB0007C019AE0892E912CA12CB12CCA01B9018C
:101AC000A50194010E94E816605DF70162937F0111
:101AD000211531054105510589F7CF010E94D00C30
:101AE000080F191F1EC0A701960119A28E010F5DD4
:101AF0001F4F8AE0C82ED12CE12CF12CCA01B9016C
:101B0000A70196010E94E816605DF80162938F01BB
:101B1000211531054105510589F7CF010E94D00CEF
:101B20008C018AEC91E00E94D00C800F911FA1964D
:101B30000FB6F894DEBF0FBECDBFDF91CF911F91DE
:101B40000F91FF90EF90DF90CF90BF90AF909F905C
:101B50008F900895CF93DF930E94D00CEC018AEC14
:101B600091E00E94D00C8C0F9D1FDF91CF910895C2
:101B7000CF93DF93282F30E0F901E255FF4F849196
:101B8000F901E656FF4FD491F901EA57FF4FC4918E
:101B9000CC2391F081110E94820CEC2FF0E0EE0F2B
:101BA000FF1FE458FF4FA591B491EC91ED2381E024
:101BB00090E021F480E002C080E090E0DF91CF91DE
:101BC00008951F93CF93DF93282F30E0F901E2555A
:101BD000FF4F8491F901E656FF4FD491F901EA577E
:101BE000FF4FC491CC23C9F0162F81110E94820CA3
:101BF000EC2FF0E0EE0FFF1FEE58FF4FA591B491D0
:101C00008FB7F894111105C09C91ED2FE095E92351
:101C100002C0EC91ED2BEC938FBFDF91CF911F9120
:101C20000895CF93DF9390E0FC01E656FF4F249197
:101C3000FC01EA57FF4F8491882361F190E0880FFF
:101C4000991FFC01E859FF4FC591D491FC01EE5852
:101C5000FF4FA591B491611109C09FB7F894888195
:101C6000209582238883EC912E230BC0623061F48F
:101C70009FB7F8943881822F809583238883EC91D5
:101C80002E2B2C939FBF06C08FB7F894E8812E2B84
:101C900028838FBFDF91CF9108958E3008F08E504A
:101CA0008770806480937C0080917A008064809348
:101CB0007A0080917A0086FDFCCF80917800209197
:101CC000790090E0922B08958F929F92AF92BF92ED
:101CD000CF92DF92EF92FF926B017C010E94AB0CDE
:101CE0004B015C01C114D104E104F104F1F00E9444
:101CF000AB0CDC01CB0188199909AA09BB09883E04
:101D00009340A105B10570F321E0C21AD108E108A2
:101D1000F10888EE880E83E0981EA11CB11CC11446
:101D2000D104E104F10419F7DDCFFF90EF90DF90CB
:101D3000CF90BF90AF909F908F9008951F920F9279
:101D40000FB60F9211242F933F938F939F93AF93CE
:101D5000BF938091820290918302A0918402B091FE
:101D600085023091350323E0230F2D3720F40196AF
:101D7000A11DB11D05C026E8230F0296A11DB11DAE
:101D8000209335038093820290938302A093840270
:101D9000B09385028091360390913703A091380368
:101DA000B09139030196A11DB11D80933603909324
:101DB0003703A0933803B0933903BF91AF919F913C
:101DC0008F913F912F910F900FBE0F901F901895FC
:101DD0008FE293E00C94030CCF93DF93CDB7DEB783
:101DE000C754D1090FB6F894DEBF0FBECDBF7894AB
:101DF00084B5826084BD84B5816084BD85B5826010
:101E000085BD85B5816085BD80916E0081608093C0
:101E10006E00109281008091810082608093810029
:101E20008091810081608093810080918000816039
:101E3000809380008091B10084608093B100809194
:101E4000B00081608093B00080917A0084608093BC
:101E50007A0080917A00826080937A0080917A0083
:101E6000816080937A0080917A00806880937A0004
:101E70001092C100E0919602F091970282E0808377
:101E8000E0919202F09193021082E0919402F0911D
:101E900095028FEC808310929E02E0919A02F0915D
:101EA0009B0286E08083E0919802F0919902808104
:101EB00080618083E0919802F0919902808188602E
:101EC0008083E0919802F0919902808180688083FC
:101ED000E0919802F091990280818F7D80838CE956
:101EE00091E00E94D00C8E010F5F1F4F8CE5C82E31
:101EF00081E0D82E94E1892E91E0992E28E4E22EFB
:101F000021E0F22E32E5A32E31E0B32E86E892E0F6
:101F10000E94EA00892BD1F36CEC71E0C8010E94A9
:101F2000080C0E94E20C97FD1BC08DA31EA26D80C1
:101F30007E802FEF621A720AB301C8010E94970BCC
:101F4000882379F329813A818D819E81BE016B5D61
:101F50007F4F820F931F0E9405187E826D82E1CF12
:101F600080912F03909130030097C9F069817A81A5
:101F70006115710591F040913103509132032D812B
:101F80003E814217530748F00E9405188D819E81BB
:101F9000909334038093330318C00E94E313898124
:101FA0009A819093300380932F038B819C8190932F
:101FB0003203809331038D819E819093340380930B
:101FC00033031A8219821C821B821E821D82C80161
:101FD0000E94030C6FE273E0CE01CD960E94E90BE4
:101FE00021E030E040E050E0BE01635C7F4FC8017B
:101FF0000E941D0C8D819E81892B51F06BEA71E04E
:1020000089819A810E94FC1777247394892B09F0A7
:10201000712CC8010E94030C772009F4AAC1BE01EB
:10202000635C7F4FCE01C1960E94E90B24E030E053
:1020300041E050E0BE016F5C7F4FC8010E941D0C63
:10204000C8010E948C0B2B013C01C8010E94030CAB
:1020500033E0431651046104710409F4CFC00CF05D
:1020600058C091E0491651046104710409F493C009
:10207000A2E04A1651046104710409F077C12DE011
:1020800030E04AE050E0BE016F5C7F4FC8010E9423
:102090001D0CC8010E948C0B762E2AE030E047E030
:1020A00050E0BE016F5C7F4FCE0185960E941D0CF3
:1020B000CE0185960E948C0B662E27E030E044E02E
:1020C00050E0BE016F5C7F4FCE018B960E941D0CCD
:1020D000CE018B960E948C0B862FF8AEEFAA69AFCB
:1020E0006AAE60E00E94110E8AE091E098AF8FAB7B
:1020F0007BAECE018B960E94030CCE0185960E948A
:10210000030CC8010E94030CCE01C7960E9454051F
:102110002BC1B4E04B1651046104710409F4EBC007
:1021200025E0421651046104710409F01FC18DEAD3
:1021300091E00E94AA0D2AE030E047E050E0BE01A5
:102140006F5C7F4FCE0185960E941D0CCE01859657
:102150000E948C0B762E27E030E044E050E0BE0178
:102160006F5C7F4FCE018B960E941D0CCE018B962B
:102170000E948C0B862FFA82E9826B837C8260E05E
:102180000E94110EBA82A98288E391E09E838D831A
:1021900081E08F83DEC027E030E044E050E0BE0104
:1021A0006F5C7F4FC8010E941D0CC8010E948C0B00
:1021B000762EC8010E94030C2AE030E047E050E090
:1021C000BE016F5C7F4FC8010E941D0CC8010E94B8
:1021D0008C0BC80128966FAF28970E94030CFA82D7
:1021E000E9827B8228966FAD28976C8360E0872D0B
:1021F0000E94110EC8010E941C05B6C028E030E004
:1022000047E050E0BE016F5C7F4FC8010E941D0C8B
:10221000C8010E948C0B27966CAF7DAF8EAF9FAF2D
:10222000279727E030E044E050E0BE016F5C7F4F2D
:10223000CE0185960E941D0CCE0185960E948C0BC6
:10224000A0E3B1E0BCA7ABA72B013C015524662459
:10225000772427968CAD9DADAEADBFAD2797892B6A
:102260008A2B8B2B49F080E190E00E944E13FC01F9
:102270009182808289E308C080E190E00E944E1341
:10228000FC019182808289E2858316821782118601
:102290001086138612864486558666867786FEA744
:1022A000EDA761E08DA59EA50E943A0360E070E075
:1022B0008DA59EA50E94D907CE0185960E94030C8C
:1022C000C8010E94030C8DA59EA5DC01ED91FC9137
:1022D0000680F781E02DB80109956D897E898F8987
:1022E000988D0E949E16CB010E94280DCE018B96E0
:1022F0000E94F2023BC02AE030E047E050E0BE011D
:102300006F5C7F4FCE0185960E941D0CCE01859695
:102310000E948C0B762E27E030E044E050E0BE01B6
:102320006F5C7F4FCE018B960E941D0CCE018B9669
:102330000E948C0B862FFA82E9826B837C8260E09C
:102340000E94110EBA82A98288E391E09E838D8358
:102350001F82CE018B960E94030CCE0185960E94AF
:10236000030CC8010E9406030E94280DCE01C196ED
:1023700025C121E030E040E050E0BE01635C7F4FCA
:10238000C8010E941D0C8D819E81892B59F066EB3E
:1023900071E089819A810E94FC1777247394892BBC
:1023A00009F0712CC8010E94030C772009F409C1BF
:1023B000BE01635C7F4FCE01C7960E94E90B24E00B
:1023C00030E041E050E0BE01695C7F4FC8010E94EF
:1023D0001D0CC8010E948C0B2B013C01C8010E94FE
:1023E000030CB2E04B1651046104710409F457C0A8
:1023F00023E0421651046104710409F481C04A9437
:1024000045284628472809F0D7C027E030E044E0B7
:1024100050E0BE01695C7F4FC8010E941D0CC801DD
:102420000E94030C2CE030E047E050E0BE01695C04
:102430007F4FC8010E941D0CC8010E94030C27E0B9
:1024400030E044E050E0BE01695C7F4FC8010E946B
:102450001D0CC8010E948C0BDEA2CDA26FA381E0EF
:1024600088A7CE0185960E94AD04C8010E94030C86
:102470002CE030E047E050E0BE01695C7F4FC801CE
:102480000E941D0CC8010E948C0B0E94640EC801A2
:102490000E94030CCE0185960E94C30789C028E0E4
:1024A00030E047E050E0BE01695C7F4FC8010E9408
:1024B0001D0CC8010E948C0B77247394672B682B2A
:1024C000692B09F4712C27E030E044E050E0BE01B4
:1024D000695C7F4FCE0185960E941D0CCE018596CA
:1024E0000E948C0BDCA6CBA66DA77EA6CE018B9698
:1024F000772019F00E94AD0454C00E94C30751C058
:102500002CE030E047E050E0BE01695C7F4FC8013D
:102510000E941D0CC8010E948C0B1B012C012DE098
:1025200030E04CE050E0BE01695C7F4FCE01859603
:102530000E941D0CCE0185960E948C0B772473940B
:10254000672B682B692B09F4712C27E030E044E0FD
:1025500050E0BE01695C7F4FCE018B960E941D0C3E
:10256000CE018B960E948C0BDAAAC9AA6BAB7CAA0F
:10257000CE01C196772019F00E94AD0402C00E94DE
:10258000C30788E691E09AAB89AB3EAA2DAA7720D3
:1025900021F0CE01C1960E94BA04CE018B960E9412
:1025A000030CCE0185960E94030CC8010E94030C07
:1025B00088EB91E00E94AA0DCE01C7960E94030C01
:1025C00028C021E030E040E050E0BE01635C7F4F76
:1025D000C8010E941D0C8D819E81892B59F068ECE9
:1025E00071E089819A810E94FC1777247394892B6A
:1025F00009F0712CC8010E94030C772051F08091E2
:102600003A0390913B03D801A81BB90BCD010E945E
:10261000280DCE01CD960E94030C0E948A0176CC33
:10262000E6E8F2E01382128288EE93E0A0E0B0E0E8
:1026300084839583A683B78324E731E031832083A5
:1026400025EC30E03587248724EC30E03787268777
:1026500020EC30E0318B208B21EC30E0338B228B6F
:1026600022EC30E0358B248B26EC30E0378B268B48
:10267000118E128E138E148EE3E2F3E01382128217
:1026800084839583A683B78386E891E091838083D2
:102690006CEC71E08FE293E00C94080CCF93DF9325
:1026A0008230910510F482E090E0E0913C03F091DB
:1026B0003D0320E030E0C0E0D0E0309711F14081F0
:1026C000518148175907C0F04817590761F48281B2
:1026D0009381209719F09B838A832BC090933D03AD
:1026E00080933C0326C02115310519F0421753078A
:1026F00018F49A01BE01DF01EF010280F381E02DA1
:10270000DCCF2115310509F1281B390B24303105A7
:1027100090F412968D919C9113976115710521F09B
:10272000FB019383828304C090933D0380933C0319
:10273000FD01329644C0FD01E20FF31F8193919396
:10274000225031092D933C933AC020913A033091A5
:102750003B03232B41F4209102013091030130937C
:102760003B0320933A032091000130910101211590
:10277000310541F42DB73EB7409104015091050158
:10278000241B350BE0913A03F0913B03E217F3076A
:10279000A0F42E1B3F0B2817390778F0AC014E5FD1
:1027A0005F4F2417350748F04E0F5F1F50933B03D0
:1027B00040933A038193919302C0E0E0F0E0CF01AF
:1027C000DF91CF9108950F931F93CF93DF930097DD
:1027D00009F48CC0FC0132971382128200913C03F1
:1027E00010913D030115110581F420813181820F83
:1027F000931F20913A0330913B032817390779F54D
:10280000F0933B03E0933A0371C0D80140E050E0FD
:10281000AE17BF0750F412962D913C911397AD015E
:102820002115310509F1D901F3CF9D01DA01338377
:10283000228360817181860F971F8217930769F445
:10284000EC0128813981260F371F2E5F3F4F3183DE
:1028500020838A819B8193838283452B29F4F09383
:102860003D03E0933C0342C01396FC93EE93129712
:10287000ED01499159919E01240F351FE217F3078D
:1028800071F480819181840F951F029611969C931B
:102890008E938281938113969C938E931297E0E09E
:1028A000F0E0D80112968D919C911397009719F042
:1028B000F8018C01F6CF8D919C9198012E5F3F4FCE
:1028C000820F931F20913A0330913B032817390759
:1028D00069F4309729F410923D0310923C0302C032
:1028E0001382128210933B0300933A03DF91CF913E
:1028F0001F910F9108951F93FC0199278827BC0110
:10290000E89411911032E9F3193010F01E30C8F339
:102910001B3251F01D3249F4689406C00E94A21483
:10292000610F711D811D911D119110531A30B0F36B
:102930003EF490958095709561957F4F8F4F9F4F96
:102940001F910895592F482F372F262F660F771F75
:10295000881F991F660F771F881F991F620F731FAB
:10296000841F951F660F771F881F991F08950E9467
:10297000F91408F481E00895E89409C097FB3EF447
:1029800090958095709561957F4F8F4F9F4F9923BC
:10299000A9F0F92F96E9BB279395F695879577953A
:1029A0006795B795F111F8CFFAF4BB0F11F460FFFA
:1029B0001BC06F5F7F4F8F4F9F4F16C0882311F052
:1029C00096E911C0772321F09EE8872F762F05C066
:1029D000662371F096E8862F70E060E02AF09A9501
:1029E000660F771F881FDAF7880F9695879597F9F6
:1029F0000895990F0008550FAA0BE0E8FEEF161690
:102A00001706E807F907C0F012161306E407F507E2
:102A100098F0621B730B840B950B39F40A2661F056
:102A2000232B242B252B21F408950A2609F4A140F9
:102A3000A6958FEF811D811D08950E9430150C947D
:102A4000A1150E94931538F00E949A1520F0952345
:102A500011F00C948A150C94901511240C94D51532
:102A60000E94B21570F3959FC1F3950F50E0551F6A
:102A7000629FF001729FBB27F00DB11D639FAA27D3
:102A8000F00DB11DAA1F649F6627B00DA11D661F22
:102A9000829F2227B00DA11D621F739FB00DA11D43
:102AA000621F839FA00D611D221F749F3327A00DFD
:102AB000611D231F849F600D211D822F762F6A2F99
:102AC00011249F5750409AF0F1F088234AF0EE0FFE
:102AD000FF1FBB1F661F771F881F91505040A9F72B
:102AE0009E3F510580F00C948A150C94D5155F3FDC
:102AF000E4F3983ED4F3869577956795B795F79567
:102B0000E7959F5FC1F7FE2B880F911D96958795DE
:102B100097F9089597F99F6780E870E060E008955D
:102B20009FEF80EC089500240A94161617061806E5
:102B30000906089500240A941216130614060506C1
:102B40000895092E0394000C11F4882352F0BB0F52
:102B500040F4BF2B11F460FF04C06F5F7F4F8F4FB5
:102B60009F4F089557FD9058440F551F59F05F3FF0
:102B700071F04795880F97FB991F61F09F3F79F09F
:102B800087950895121613061406551FF2CF469521
:102B9000F1DF08C0161617061806991FF1CF8695A3
:102BA0007105610508940895E894BB276627772787
:102BB000CB0197F908950E941D16A59F900DB49F13
:102BC000900DA49F800D911D112408952F923F9286
:102BD0004F925F926F927F928F929F92AF92BF922D
:102BE000CF92DF92EF92FF920F931F93CF93DF93D9
:102BF000CDB7DEB7CA1BDB0B0FB6F894DEBF0FBE36
:102C0000CDBF09942A88398848885F846E847D8482
:102C10008C849B84AA84B984C884DF80EE80FD8084
:102C20000C811B81AA81B981CE0FD11D0FB6F894FA
:102C3000DEBF0FBECDBFED010895A29FB001B39FCF
:102C4000C001A39F700D811D1124911DB29F700DB5
:102C5000811D1124911D08950E9440160C94A11508
:102C60000E949A1558F00E94931540F029F45F3F96
:102C700029F00C948A1551110C94D5150C949015CB
:102C80000E94B21568F39923B1F3552391F3951B74
:102C9000550BBB27AA2762177307840738F09F5F7D
:102CA0005F4F220F331F441FAA1FA9F335D00E2EEA
:102CB0003AF0E0E832D091505040E695001CCAF757
:102CC0002BD0FE2F29D0660F771F881FBB1F26171A
:102CD00037074807AB07B0E809F0BB0B802DBF01F1
:102CE000FF2793585F4F3AF09E3F510578F00C94C0
:102CF0008A150C94D5155F3FE4F3983ED4F386957E
:102D000077956795B795F7959F5FC9F7880F911DE0
:102D10009695879597F90895E1E0660F771F881FCC
:102D2000BB1F621773078407BA0720F0621B730B7F
:102D3000840BBA0BEE1F88F7E09508950E94A51644
:102D40006894B1110C94D51508950E94BA1588F0B5
:102D50009F5798F0B92F9927B751B0F0E1F0660F5F
:102D6000771F881F991F1AF0BA95C9F714C0B130A0
:102D700091F00E94D415B1E008950C94D415672FFA
:102D8000782F8827B85F39F0B93FCCF386957795CF
:102D90006795B395D9F73EF49095809570956195B8
:102DA0007F4F8F4F9F4F089597FB072E16F4009487
:102DB00007D077FD09D00E940A1707FC05D03EF422
:102DC000909581959F4F0895709561957F4F0895D7
:102DD000A1E21A2EAA1BBB1BFD010DC0AA1FBB1F1F
:102DE000EE1FFF1FA217B307E407F50720F0A21B91
:102DF000B30BE40BF50B661F771F881F991F1A94FE
:102E000069F760957095809590959B01AC01BD0127
:102E1000CF010895AA1BBB1B51E107C0AA1FBB1F0E
:102E2000A617B70710F0A61BB70B881F991F5A9556
:102E3000A9F780959095BC01CD010895EE0FFF1F75
:102E40000590F491E02D0994A0E0B0E0EAE2F7E10A
:102E50000C94EA15EC01009721F4CB010E944E136B
:102E6000B8C0FC01E60FF71F9C0122503109E217A0
:102E7000F30708F4ACC0D9010D911C911197061706
:102E80001707B0F00530110508F49FC0C80104977A
:102E90008617970708F499C002501109061B170BF3
:102EA000019311936D937C93CF010E94E3138DC026
:102EB0005B01A01AB10A4C01800E911EA0913C0347
:102EC000B0913D0340E050E0E12CF12C109709F463
:102ED0004AC0A815B905D1F56D907C901197630192
:102EE00082E0C80ED11CCA14DB0480F1A3014A1988
:102EF0005B096A0182E0C80ED11C1296BC90129741
:102F00001396AC91B5E0CB16D10440F0B282A38306
:102F100051834083D9016D937C930AC00E5F1F4F8C
:102F2000C301800F911FF90191838083EB2DFA2F4C
:102F3000E114F10431F0D7011396FC93EE9312974C
:102F400044C0F0933D03E0933C033FC08D919C91BE
:102F500011974817590708F4AC017D0112960D909E
:102F6000BC91A02DB3CF80913A0390913B0388157B
:102F70009905E1F446175707C8F480910001909134
:102F80000101009741F48DB79EB740910401509123
:102F90000501841B950BE817F907C8F4F0933B0370
:102FA000E0933A03F901718360830FC0CB010E9463
:102FB0004E137C01009759F0A801BE010E94F3173F
:102FC000CE010E94E313C70104C0CE0102C080E01D
:102FD00090E0CDB7DEB7EEE00C94061681E090E00D
:102FE000F8940C941B18FB01DC0102C001900D92B7
:102FF00041505040D8F70895FB01DC018D910190BC
:1030000080190110D9F3990B0895FB01DC0101909F
:103010000D920020E1F70895FB01DC014150504082
:1030200048F001900D920020C9F701C01D92415057
:103030005040E0F7089510E0C2E6D0E004C0FE0181
:103040000E941E172196C336D107C9F7F894FFCF07
:1030500000003E03800000000000D6079D045405D8
:1030600000000000D807AB043A038B0858060000A4
:103070000000000000003D038A0B8A0B00000000E6
:10308000F2029F0400000000A202950181058C025B
:10309000B505250200000000D5079B041C050000B3
:1030A0000000D707A904060300000000C207990426
:1030B000AD04940100000000D4079704BA04940101
:1030C0000000000021018E00B9006801EA00C8007C
:1030D000DC00000000006804380403043E036203BF
:1030E0004E033F0354534C32353631004172647500
:1030F000696E6F2052656164790A00730048756DCE
:103100006964697479006300436F727265637469FE
:0E3110006F6E204D616465006D000D0A0000B9
:00000001FF
