:100000000C9462000C948A000C948A000C948A0070
:100010000C948A000C948A000C948A000C948A0038
:100020000C948A000C948A000C948A000C948A0028
:100030000C948A000C948A000C948A000C948A0018
:100040000C94A8060C948A000C9418070C94F206E1
:100050000C948A000C948A000C948A000C948A00F8
:100060000C944A070C948A0000000000240027002A
:100070002A0000000000250028002B0000000000DE
:1000800023002600290004040404040404040202DA
:100090000202020203030303030301020408102007
:1000A0004080010204081020010204081020000012
:1000B0000008000201000003040700000000000027
:1000C0000000780811241FBECFEFD8E0DEBFCDBFFF
:1000D00011E0A0E0B1E0ECE4FCE102C005900D927B
:1000E000A238B107D9F722E0A2E8B1E001C01D9221
:1000F000A33CB207E1F710E0C2E6D0E004C02197CC
:10010000FE010E94EC0CC136D107C9F70E94B1086C
:100110000C94240E0C940000833081F028F481307C
:1001200099F08230A1F008958730A9F08830B9F0B5
:100130008430D1F4809180008F7D03C08091800055
:100140008F7780938000089584B58F7702C084B53F
:100150008F7D84BD08958091B0008F7703C080911A
:10016000B0008F7D8093B0000895CF93DF93282F48
:1001700030E0F901E255FF4F8491F901E656FF4F57
:10018000D491F901EA57FF4FC491CC2391F081112A
:100190000E948C00EC2FF0E0EE0FFF1FE458FF4FA1
:1001A000A591B491EC91ED2381E090E021F480E001
:1001B00002C080E090E0DF91CF9108951F93CF932C
:1001C000DF93282F30E0F901E255FF4F8491F901C8
:1001D000E656FF4FD491F901EA57FF4FC491CC2363
:1001E000C9F0162F81110E948C00EC2FF0E0EE0F69
:1001F000FF1FEE58FF4FA591B4918FB7F8941111DE
:1002000005C09C91ED2FE095E92302C0EC91ED2B08
:10021000EC938FBFDF91CF911F910895CF93DF9320
:1002200090E0FC01E656FF4F2491FC01EA57FF4F96
:100230008491882361F190E0880F991FFC01E859AF
:10024000FF4FC591D491FC01EE58FF4FA591B49199
:10025000611109C09FB7F894888120958223888313
:10026000EC912E230BC0623061F49FB7F894388173
:10027000822F809583238883EC912E2B2C939FBF14
:1002800006C08FB7F894E8812E2B28838FBFDF91AB
:10029000CF9108953FB7F894809112029091130284
:1002A000A0911402B091150226B5A89B05C02F3F5E
:1002B00019F00196A11DB11D3FBFBA2FA92F982F8C
:1002C0008827820F911DA11DB11DBC01CD0142E007
:1002D000660F771F881F991F4A95D1F708958F924F
:1002E0009F92AF92BF92CF92DF92EF92FF926B01FB
:1002F0007C010E944A014B015C01C114D104E1045C
:10030000F104F1F00E944A01DC01CB01881999093E
:10031000AA09BB09883E9340A105B10570F321E00D
:10032000C21AD108E108F10888EE880E83E0981E11
:10033000A11CB11CC114D104E104F10419F7DDCFF3
:10034000FF90EF90DF90CF90BF90AF909F908F90F5
:100350000895CF92DF92EF92FF920F931F93CF9366
:10036000DF936C017A018B01C0E0D0E0CE15DF0590
:1003700089F0D8016D918D01D601ED91FC9101902C
:10038000F081E02DC6010995892B11F47E0102C090
:100390002196ECCFC701DF91CF911F910F91FF9074
:1003A000EF90DF90CF900895FC01538D448D252F61
:1003B00030E0842F90E0821B930B541710F0CF96FF
:1003C000089501970895FC01918D828D981761F031
:1003D000828DDF01A80FB11D5D968C91928D9F5F7C
:1003E0009F73928F90E008958FEF9FEF0895FC0127
:1003F000918D828D981731F0828DE80FF11D858DDA
:1004000090E008958FEF9FEF0895FC01918D228D6C
:10041000892F90E0805C9F4F821B91098F739927F1
:10042000089586E192E00E94050221E0892B09F4FB
:1004300020E0822F0895FC01848DDF01A80FB11DFB
:10044000A35ABF4F2C91848D90E001968F7399270A
:10045000848FA689B7892C93A089B1898C918064F7
:100460008C93938D848D981306C00288F389E02DB8
:1004700080818F7D80830895EF92FF920F931F9369
:10048000CF93DF93EC0181E0888F9B8D8C8D981347
:1004900005C0E889F989808185FD24C0F62E0B8D81
:1004A00010E00F5F1F4F0F731127E02E8C8DE812A5
:1004B0000CC00FB607FCFACFE889F989808185FF67
:1004C000F5CFCE010E941B02F1CF8B8DFE01E80F0C
:1004D000F11DE35AFF4FF0820B8FEA89FB8980817F
:1004E000806207C0EE89FF896083E889F98980818D
:1004F0008064808381E090E0DF91CF911F910F9124
:10050000FF90EF900895CF93DF93EC01888D8823BF
:10051000C9F0EA89FB89808185FD05C0A889B98970
:100520008C9186FD0FC00FB607FCF5CF808185FF4B
:10053000F2CFA889B9898C9185FFEDCFCE010E94B9
:100540001B02E7CFDF91CF91089580E090E0892BE7
:1005500029F00E94110281110C9400000895089561
:10056000CF93DF93EC018A819B81DC01ED91FC91BB
:100570000190F081E02D0995AC01EC81FD81848131
:10058000288530E0882351F04217530784F42985E9
:1005900030E081E0241735076CF009C024173507D7
:1005A00044F0298530E081E0421753071CF080E0D9
:1005B00001C081E0DF91CF910895FC016087418700
:1005C000089508950895CF93DF93EC0160E08B8147
:1005D0000E940E0161E08B810E940E0160E08B8120
:1005E0000E94DE001C82DF91CF910895CF93DF93AC
:1005F000EC018A819B81DC01ED91FC910190F081FD
:10060000E02D0995AC018C819D81FC013481288508
:10061000332369F030E042175307DCF4298530E0DA
:1006200024173507B4F4DF91CF910C94E30230E046
:10063000241735072CF0298530E0421753074CF476
:10064000DC01ED91FC910480F581E02DDF91CF91EB
:100650000994DF91CF910895CF93DF93EC0161E08E
:100660008B810E940E0161E08B81DF91CF910C9410
:10067000DE000F931F93CF93DF938C0161E0FC01A9
:1006800084810E94DE0068EC70E080E090E00E94CF
:100690006F01F80193819E3008F09E50977090642E
:1006A00090937C0080917A00806480937A0080919E
:1006B0007A0086FDFCCFC091780080917900D0E06F
:1006C000D82B62E370E080E090E00E946F0160E070
:1006D000F80184810E94DE00CE01DF91CF911F914D
:1006E0000F910895089508958F929F92AF92BF92AF
:1006F000CF92DF92EF92FF920F931F93CF93DF93EE
:10070000CDB7DEB7AC970FB6F894DEBF0FBECDBF46
:100710006C014A015901CE0101967C0188E2D701A2
:100720001D928A95E9F7D601ED91FC910084F1853F
:10073000E02DA701C6010995009709F04DC01CA640
:100740001BA61AA619A6D601ED91FC910284F38589
:10075000E02D9E01275D3F4FAE01455D5F4FB70124
:10076000C60109950097C1F50115110539F088E218
:10077000F701D80101900D928A95E1F78114910457
:1007800099F06BA57CA5072E000C880B990B0E9495
:100790007B0B20E030E040E251E40E94D10AF401FA
:1007A0006083718382839383A114B104B9F069A536
:1007B0007AA5072E000C880B990B0E947B0B20E07A
:1007C00030E040E251E40E94D10AD5016D937D935F
:1007D0008D939C93139702C0282F02C020E090E0D5
:1007E000822FAC960FB6F894DEBF0FBECDBFDF915F
:1007F000CF911F910F91FF90EF90DF90CF90BF901E
:10080000AF909F908F9008958F929F92AF92BF92DA
:10081000CF92DF92EF92FF920F931F93CF93DF93CC
:10082000EC018B015A016901E881F9810680F781A9
:10083000E02D0995982EE881F981B801685F7F4F16
:100840000680F781E02DCE010995F82EE881F98127
:10085000B801605F7F4F0680F781E02DCE010995DA
:10086000882EE881F981B801685E7F4F0680F781A4
:10087000E02DCE010995E82EE881F981B801605E8E
:100880007F4F0680F781E02DCE0109959F2D990DB0
:10089000980D9E0D891310C02E2D30E03829F501DA
:1008A000318320834F2D50E0CA019929F6019183AD
:1008B000808380E090E002C089E690E0DF91CF91F4
:1008C0001F910F91FF90EF90DF90CF90BF90AF906E
:1008D0009F908F90089540E050E080E0A7E0B0E066
:1008E000FB012191BF01FD01E41BF50B01C0220FAB
:1008F000EA95EAF7820F4F5F5F4F4830510581F765
:100900000895AF92BF92DF92EF92FF920F931F93E1
:10091000CF93DF93D62ECA016AE070E00E94A20C4A
:100920007B01C0E0D0E0022F10E083E2A82EB12CC2
:10093000EC16FD065CF08D2D0E94B5008017910726
:1009400041F4F5013197F1F72196F2CF8FEF9FEF48
:1009500002C080E090E0DF91CF911F910F91FF9056
:10096000EF90DF90BF90AF900895CF92DF92EF921B
:10097000FF920F931F93CF93DF93CDB7DEB72897E6
:100980000FB6F894DEBF0FBECDBF6A0179011D829C
:100990001E821F82188619821A821B821C82DC0129
:1009A000ED91FC910280F381E02D9E012F5F3F4F7E
:1009B000AE014B5F5F4F0995892BB1F4C114D1048F
:1009C00041F06D817E818F8198850E94430BF601F5
:1009D0006083E114F10441F069817A818B819C810B
:1009E0000E94430BD7016C9380E090E028960FB6ED
:1009F000F894DEBF0FBECDBFDF91CF911F910F9155
:100A0000FF90EF90DF90CF90089580E090E0089500
:100A10000F931F93CF93DF9300D000D0CDB7DEB7F5
:100A2000FC0127816381059670E000E010E022233D
:100A300031F09E012F5F3F4F40E050E005C020E0C5
:100A400030E0AE014F5F5F4F0E94740320E030E062
:100A500040E251E469817A818B819C810E94300C53
:100A60000E94430BCB010F900F900F900F90DF91DE
:100A7000CF911F910F910895089508958FEF9FEFE3
:100A800008958FEF9FEF08958091F00190E0919588
:100A9000819591090895089580E090E0089585ED8D
:100AA0008093BC008091BC0084FDFCCF1092CA01F1
:100AB00008954091A401262F30E0240F311D2132EA
:100AC0003105DCF42091CA012430C9F4FC0180E036
:100AD00090E0861758F43091A4012191DC01AE57C3
:100AE000BE4FA30FB11D2C930196F3CF8091A401AB
:100AF000680F6093A40180E0089581E0089582E08A
:100B00000895CF93DF9300D0CDB7DEB7CB01642F2C
:100B100049835A830E9459054981842F5A81952F10
:100B20000F900F90DF91CF910895CF93DF931F9295
:100B3000CDB7DEB7698361E0CE0101960E94590509
:100B400081E090E00F90DF91CF910895009769F0D8
:100B5000FC0101900020E9F73197AF01481B590BC8
:100B6000BC0186E192E00C94A90180E090E0089538
:100B70008F929F92AF92BF920F931F93CF93DF9369
:100B8000CDB7DEB7A1970FB6F894DEBF0FBECDBFCD
:100B900019A2423008F44AE08E010F5D1F4F842EE7
:100BA000912CA12CB12CA50194010E94B60CE62F2A
:100BB000B901CA0101501109EA3014F4E05D01C025
:100BC000E95CD801EC93232B242B252B61F7C8017A
:100BD0000E94A605A1960FB6F894DEBF0FBECDBF4A
:100BE000DF91CF911F910F91BF90AF909F908F9009
:100BF00008950E941F0E0C94870D0C94870D0C9481
:100C0000870D0C94870D0C94870D8F929F92AF9255
:100C1000BF92CF92DF92EF92FF920F931F93CF93E9
:100C2000DF938C01EB017A0188E2DA011D928A954B
:100C3000E9F761E08C2F0E940E0160E08C2F0E948A
:100C4000DE008BE99FE00197F1F761E08C2F0E94B5
:100C5000DE0060E08C2F0E940E0183E790E0019798
:100C6000F1F7D801ED91FC910480F581E02D20E0B1
:100C700040E550E0BE01C8010995892BB9F5D801BE
:100C8000ED91FC910480F581E02D21E040E550E0FC
:100C9000BE01C8010995892B61F55701B8E2AB0E79
:100CA000B11C83E2882E912CD801ED91FC91048037
:100CB000F581E02D20E042E350E0BE01C801099536
:100CC000892BD1F4C12CD12C8C2F0E94B500019717
:100CD000B1F4C4010197F1F7BFEFCB1ADB0AE8E0EA
:100CE000CE16D10489F787E690E025C084E690E02F
:100CF00022C085E690E01FC086E690E01CC081E03F
:100D0000B4E0CB16D1040CF480E0F70181937F01AD
:100D1000EA15FB0549F6D801ED91FC910480F581B7
:100D2000E02D20E042E350E0BE01C80109950097A4
:100D300011F088E690E0DF91CF911F910F91FF9025
:100D4000EF90DF90CF90BF90AF909F908F900895DD
:100D50001F920F920FB60F9211242F933F938F93F0
:100D60009F93AF93BF9380910E0290910F02A09139
:100D70001002B091110230910D0223E0230F2D37A4
:100D800020F40196A11DB11D05C026E8230F02968F
:100D9000A11DB11D20930D0280930E0290930F02AE
:100DA000A0931002B093110280911202909113024D
:100DB000A0911402B09115020196A11DB11D80935E
:100DC000120290931302A0931402B0931502BF91E4
:100DD000AF919F918F913F912F910F900FBE0F90E8
:100DE0001F9018951F920F920FB60F9211242F93F8
:100DF0003F934F935F936F937F938F939F93AF93A3
:100E0000BF93EF93FF9386E192E00E941B02FF9154
:100E1000EF91BF91AF919F918F917F916F915F9172
:100E20004F913F912F910F900FBE0F901F901895EB
:100E30001F920F920FB60F9211242F938F939F93AF
:100E4000EF93FF93E0912602F09127028081E091D9
:100E50002C02F0912D0282FD12C0908180912F0210
:100E60008F5F8F7320913002821751F0E0912F0233
:100E7000F0E0EA5EFD4F958F80932F0201C08081E4
:100E8000FF91EF919F918F912F910F900FBE0F9037
:100E90001F9018951F920F920FB60F9211242F9347
:100EA0003F934F935F936F937F938F939F93AF93F2
:100EB000BF93EF93FF938091B900887F803609F448
:100EC0009CC068F5883209F45BC090F4803109F465
:100ED00054C038F4882309F4F6C0883009F44DC0B2
:100EE000F6C0883109F44CC0803209F45DC0EFC00F
:100EF000803409F468C048F4803309F455C088335D
:100F000009F0E5C08093C901D8C0803509F44FC00D
:100F1000883509F45DC0883409F0D9C0D6C0883955
:100F200009F4C7C0A8F4883709F467C038F48836D4
:100F300009F463C0803709F460C0C9C0883809F477
:100F4000B8C0803909F45FC0803809F0C0C05BC008
:100F5000803B09F486C038F4803A09F466C0883AC8
:100F600009F47FC0B4C0803C09F4A7C0883C09F4F0
:100F7000A4C0883B09F48AC0AAC08091EF0110C0C8
:100F80009091EE018091ED01981770F5E091EE01DE
:100F900081E08E0F8093EE01F0E0E353FE4F8081FD
:100FA0008093BB0085EC86C08093C9018EC0E09120
:100FB000EE0181E08E0F8093EE018091BB00F0E0A6
:100FC000E353FE4F80839091EE018091ED016EC05E
:100FD000E091EE0181E08E0F8093EE018091BB00E5
:100FE000F0E0E353FE4F80838091CC0181116DC00E
:100FF00081E08093CB0184EA61C083E08093CA01E1
:101000001092C801CFCF8091C801803208F051C042
:10101000E091C80181E08E0F8093C8018091BB00F0
:10102000F0E0E855FE4F8083BDCF85EC8093BC0097
:101030001092CA018091C801803230F4E091C80159
:10104000F0E0E855FE4F10826091C80170E0E09139
:10105000A601F091A70188EA91E009951092C801D4
:1010600036C084E08093CA011092A5011092A401B9
:10107000E091A201F091A30109958091A401811151
:1010800005C081E08093A40110928201E091A50146
:1010900081E08E0F8093A501F0E0EE57FE4F808136
:1010A0008093BB009091A5018091A401981708F44A
:1010B00079CF85E88093BC000AC085EC8093BC00A2
:1010C0001092CA0104C01092C9010E944F05FF91FD
:1010D000EF91BF91AF919F918F917F916F915F91B0
:1010E0004F913F912F910F900FBE0F901F90189529
:1010F000E6E1F2E01382128288EE93E0A0E0B0E035
:1011000084839583A683B7832EE331E031832083E4
:1011100025EC30E03587248724EC30E037872687BC
:1011200020EC30E0318B208B21EC30E0338B228BB4
:1011300022EC30E0358B248B26EC30E0378B268B8D
:10114000118E128E138E148EE3EBF2E01382128254
:1011500084839583A683B78380E591E09183808320
:101160000895789484B5826084BD84B5816084BD1F
:1011700085B5826085BD85B5816085BD80916E0035
:10118000816080936E001092810080918100826066
:1011900080938100809181008160809381008091A3
:1011A00080008160809380008091B1008460809392
:1011B000B1008091B00081608093B00080917A008E
:1011C000846080937A0080917A00826080937A00B4
:1011D00080917A00816080937A0080917A008068A3
:1011E00080937A001092C100E0912602F0912702CC
:1011F000C2E0C083E0912202F09123021082E091CC
:101200002402F09125028FEC808310922E02E0914F
:101210002A02F0912B0206E00083E0912802F0916F
:101220002902808180618083E0912802F091290267
:10123000808188608083E0912802F091290280817A
:1012400080688083E0912802F091290280818F7D5F
:10125000808388E090E00E94F20CFC01C283C3838B
:1012600014828AE191E0918380838AE091E0968301
:10127000858311E01783F0930002E093FF0185E07E
:1012800090E00E94F20CEC0184E291E09983888363
:101290000B831A831C82CE010E94E302D093F201D9
:1012A000C093F1018BE090E00E94F20CFC01809170
:1012B000F3019091F401209101023091020240E388
:1012C00051E0518340833383228395838483168343
:1012D0001783128680E280871186F093FE01E093E7
:1012E000FD018091FF0190910002DC01ED91FC91E4
:1012F0000190F081E02D0995BC01990F880B990BA5
:101300000E947B0B20E030E040E251E40E94D10AD1
:101310006B017C014B015C019B01AC010E949D0CA7
:10132000882319F08EE591E01AC026013701E89470
:1013300077F82FEF3FEF4FE75FE7C301B2010E945D
:101340009D0C81110FC02FEF3FEF4FE75FE7C30107
:10135000B2010E94CC0A18162CF482E691E00E9499
:10136000A60584C02FEF3FEF4FE75FE4C701B6014A
:101370000E942B0C18161CF486E691E0F0CF2FEF9C
:101380003FEF4FE75FECC701B6010E94CC0A87FD33
:10139000F3CF20E030E0A901C701B6010E94CC0ADA
:1013A00087FF11C0E0911602F09117020190F081C1
:1013B000E02D6DE286E192E0099546015701B7FA0A
:1013C000B094B7F8B0942AE037ED43EA5BE3C50187
:1013D000B4010E94600A4B015C010E944A0B6B0140
:1013E0007C010E94790B9B01AC01C501B4010E94F4
:1013F0005F0A4B015C014AE0C701B6010E94B805D3
:10140000E0911602F09117020190F081E02D6EE25A
:1014100086E192E0099520E030E040E251E4C50128
:10142000B4010E94300C4B015C010E944A0B6B011D
:10143000E12CF12C4AE0C701B6010E94B805C701B2
:10144000B6010E94790B9B01AC01C501B4010E9459
:101450005F0A20E030E040E251E40E94300C0E943C
:101460004A0B80E090E04AE00E94B8058091FD01BF
:101470009091FE01DC01ED91FC910680F781E02D59
:101480000995882399F08091FD019091FE01DC017E
:10149000ED91FC910084F185E02D09958AE691E0BB
:1014A0000E94A6058FE791E00E94A60568EE73E012
:1014B00080E090E00E946F010E94A50212CF505878
:1014C000BB27AA270E94770A0C94F10B0E94E30B1A
:1014D00038F00E94EA0B20F039F49F3F19F426F40B
:1014E0000C94E00B0EF4E095E7FB0C94DA0BE92F7B
:1014F0000E94020C58F3BA17620773078407950716
:1015000020F079F4A6F50C94240C0EF4E0950B2E43
:10151000BA2FA02D0B01B90190010C01CA01A00145
:101520001124FF27591B99F0593F50F4503E68F1A0
:101530001A16F040A22F232F342F4427585FF3CFE1
:10154000469537952795A795F0405395C9F77EF4B2
:101550001F16BA0B620B730B840BBAF09150A1F0FB
:10156000FF0FBB1F661F771F881FC2F70EC0BA0F81
:10157000621F731F841F48F4879577956795B79509
:10158000F7959E3F08F0B0CF9395880F08F0992704
:10159000EE0F9795879508950E94B60B08F481E0A9
:1015A00008950E94E50A0C94F10B0E94EA0B58F092
:1015B0000E94E30B40F029F45F3F29F00C94DA0B12
:1015C00051110C94250C0C94E00B0E94020C68F352
:1015D0009923B1F3552391F3951B550BBB27AA27EC
:1015E00062177307840738F09F5F5F4F220F331F26
:1015F000441FAA1FA9F335D00E2E3AF0E0E832D0EE
:1016000091505040E695001CCAF72BD0FE2F29D0F0
:10161000660F771F881FBB1F261737074807AB07C2
:10162000B0E809F0BB0B802DBF01FF2793585F4F37
:101630003AF09E3F510578F00C94DA0B0C94250C8F
:101640005F3FE4F3983ED4F3869577956795B79519
:10165000F7959F5FC9F7880F911D9695879597F924
:101660000895E1E0660F771F881FBB1F621773079D
:101670008407BA0720F0621B730B840BBA0BEE1FB2
:1016800088F7E09508950E944A0B6894B1110C9474
:10169000250C08950E940A0C88F09F5798F0B92FE6
:1016A0009927B751B0F0E1F0660F771F881F991F97
:1016B0001AF0BA95C9F714C0B13091F00E94240C09
:1016C000B1E008950C94240C672F782F8827B85F19
:1016D00039F0B93FCCF3869577956795B395D9F7EF
:1016E0003EF490958095709561957F4F8F4F9F4FF9
:1016F0000895E89409C097FB3EF490958095709505
:1017000061957F4F8F4F9F4F9923A9F0F92F96E94D
:10171000BB279395F695879577956795B795F111C2
:10172000F8CFFAF4BB0F11F460FF1BC06F5F7F4F5F
:101730008F4F9F4F16C0882311F096E911C0772371
:1017400021F09EE8872F762F05C0662371F096E87A
:10175000862F70E060E02AF09A95660F771F881F49
:10176000DAF7880F9695879597F90895990F0008ED
:10177000550FAA0BE0E8FEEF16161706E807F90763
:10178000C0F012161306E407F50798F0621B730BFE
:10179000840B950B39F40A2661F0232B242B252B7F
:1017A00021F408950A2609F4A140A6958FEF811D22
:1017B000811D089597F99F6780E870E060E00895C3
:1017C0009FEF80EC089500240A9416161706180659
:1017D0000906089500240A94121613061406050635
:1017E0000895092E0394000C11F4882352F0BB0FC6
:1017F00040F4BF2B11F460FF04C06F5F7F4F8F4F29
:101800009F4F089557FD9058440F551F59F05F3F63
:1018100071F04795880F97FB991F61F09F3F79F012
:1018200087950895121613061406551FF2CF469594
:10183000F1DF08C0161617061806991FF1CF869516
:101840007105610508940895E894BB2766277727FA
:10185000CB0197F908950E94B60B08F48FEF089515
:101860000E94430C0C94F10B0E94E30B38F00E9491
:10187000EA0B20F0952311F00C94DA0B0C94E00B9A
:1018800011240C94250C0E94020C70F3959FC1F357
:10189000950F50E0551F629FF001729FBB27F00D1E
:1018A000B11D639FAA27F00DB11DAA1F649F662773
:1018B000B00DA11D661F829F2227B00DA11D621FC2
:1018C000739FB00DA11D621F839FA00D611D221F7C
:1018D000749F3327A00D611D231F849F600D211D60
:1018E000822F762F6A2F11249F5750409AF0F1F0E3
:1018F00088234AF0EE0FFF1FBB1F661F771F881F4C
:1019000091505040A9F79E3F510580F00C94DA0B9E
:101910000C94250C5F3FE4F3983ED4F386957795BD
:101920006795B795F795E7959F5FC1F7FE2B880FF1
:10193000911D9695879597F908950E94B60B880B8F
:10194000990B089597FB072E16F4009407D077FDA6
:1019500009D00E94D80C07FC05D03EF490958195E3
:101960009F4F0895709561957F4F0895A1E21A2EBB
:10197000AA1BBB1BFD010DC0AA1FBB1FEE1FFF1F33
:10198000A217B307E407F50720F0A21BB30BE40B83
:10199000F50B661F771F881F991F1A9469F76095CA
:1019A0007095809590959B01AC01BD01CF01089584
:1019B000AA1BBB1B51E107C0AA1FBB1FA617B70775
:1019C00010F0A61BB70B881F991F5A95A9F7809591
:1019D0009095BC01CD010895EE0FFF1F0590F49185
:1019E000E02D0994CF93DF938230910510F482E0CB
:1019F00090E0E091C102F091C20220E030E0C0E04E
:101A0000D0E0309711F14081518148175907C0F05B
:101A10004817590761F482819381209719F09B83BD
:101A20008A832BC09093C2028093C10226C02115E5
:101A3000310519F04217530718F49A01BE01DF016E
:101A4000EF010280F381E02DDCCF2115310509F192
:101A5000281B390B2430310590F412968D919C91FE
:101A600013976115710521F0FB019383828304C0F4
:101A70009093C2028093C102FD01329644C0FD01E1
:101A8000E20FF31F81939193225031092D933C93E0
:101A90003AC02091BF023091C002232B41F4209123
:101AA0000201309103013093C0022093BF022091C4
:101AB0000001309101012115310541F42DB73EB7E8
:101AC0004091040150910501241B350BE091BF02A8
:101AD000F091C002E217F307A0F42E1B3F0B28176A
:101AE000390778F0AC014E5F5F4F2417350748F097
:101AF0004E0F5F1F5093C0024093BF02819391939A
:101B000002C0E0E0F0E0CF01DF91CF9108950F93A4
:101B10001F93CF93DF93009709F48CC0FC01329799
:101B2000138212820091C1021091C20201151105A7
:101B300081F420813181820F931F2091BF02309167
:101B4000C0022817390779F5F093C002E093BF026D
:101B500071C0D80140E050E0AE17BF0750F41296B4
:101B60002D913C911397AD012115310509F1D90152
:101B7000F3CF9D01DA013383228360817181860F67
:101B8000971F8217930769F4EC0128813981260F8A
:101B9000371F2E5F3F4F318320838A819B81938340
:101BA0008283452B29F4F093C202E093C10242C024
:101BB0001396FC93EE931297ED01499159919E0172
:101BC000240F351FE217F30771F480819181840F90
:101BD000951F029611969C938E9382819381139602
:101BE0009C938E931297E0E0F0E0D80112968D91CD
:101BF0009C911397009719F0F8018C01F6CF8D9105
:101C00009C9198012E5F3F4F820F931F2091BF023E
:101C10003091C0022817390769F4309729F41092DF
:101C2000C2021092C10202C0138212821093C0023B
:101C30000093BF02DF91CF911F910F91089581E032
:0C1C400090E0F8940C94240EF894FFCF70
:101C4C000000C302800000000000B504740381048E
:101C5C006B04050604040000000008053C0503069F
:101C6C0000000000E102FB052C03E2020000000072
:101C7C00AF02FD05DD02B002F602000000003C02DE
:101C8C00A901D40183020502E301F7010000000061
:101C9C00950581054C053D05440541053E056E61E4
:101CAC006E00696E66006F766600436F72726563D4
:101CBC0074696F6E206170706C6965642120000D11
:021CCC000A000C
:00000001FF
